:020000040000FA
:06000000020AB502020A2B
:03002B0002085474
:030053000201396E
:03006B000206A8E2
:1000830002019B010100F0FF0700080000FFFF00D1
:10009300000504000000030001FF800000002801A8
:1000A30000000020FD000206FFFF1E0101102020BA
:1000B3002020202020202020202020202020010874
:1000C300040100010002918F01D28F010400001985
:1000D3001200000010270000FFFF6A1201881300BE
:1000E300001027000064006400B801A0BB0D00A04D
:1000F300BB0D00020302070401051E02051E020ACE
:100103000A010108080103B80B02803E0102FEFF49
:10011300E8030A050001FFFF020A011401E00503D9
:100123000101FF0FDA2400000000AE2300000000ED
:10013300FF000000FF00C0E074F1120489A2AFE4E5
:1001430033F509D2AF85A708AFA1EF5508FE7410A8
:100153005E6006120D5D75A1EF74085E6008120DF6
:100163006375A1F78024EFA2E092F0E508A2E08294
:10017300F05017906198E0F8900473E0C398A2D20E
:1001830065D0335002E8F075A1FE752300E509A29E
:10019300E092AF7F020204E8C0E074F2120489A285
:1001A300AFE433FED2AF9061A4E0F8759B00E59114
:1001B30058540860087591F7120DB18023E59158E2
:1001C300541060087591EF120DB78014E591A2E009
:1001D30092F0E8A2E082F05007E0C2E0F0120F0DC7
:1001E3009061A3E0F8E5E9585404600E120EE3753C
:1001F300E9FB906193E0A2E640F2752300EEA2E0F2
:1002030092AF7F010204E8C0E074F2120489A2AF46
:10021300E433FED2AF9061A5E0F8E5BF5854046023
:100223000675BFFB120F2580D1C3E498F8E499F952
:1002330012026D8026C3E49AFAE49BFBE920E7E906
:1002430012026DE498F8E499F922C3E498F8E4996A
:10025300F912026DE498F8E499F9C3E49AFAE49B7D
:10026300FB22EB20E7CFE920E7E0B90010BB000851
:10027300E88AF084F8AAF022E4FBC8FA22EB7022A1
:100283007B10C833C8C933C9335007C39AC3DBF2E1
:1002930080069A50012ADBEAC833F4C8C933F4C98B
:1002A300FA2275F008E4C833C8C933C933C99AC9F7
:1002B3009B5004C92AC93BD5F0ECFBC833F4C8E40E
:1002C300C9FA22080808EAC0E0EBC0E086F0E7A418
:1002D300FA180986F0E7A42AFA180986F0E7A42A8F
:1002E300FA180986F0E7A42AFA1986F0E7A4FBE5D1
:1002F300F02AFA190886F0E7A42BFBE5F03AFA197D
:100303000886F0E7A42BFBE5F03AFA18180986F003
:10031300E7A4C5F02BFBE43AFA1908E7C5F0C6A435
:1003230026F6E5F03BFBE43AFA1886F0E7A4F6E597
:10033300F00826F6E43B08F6E43A08F6D0E0FBD0F2
:10034300E0FA22E4CFC0E0E4CEC0E0E4CDC0E0E4D4
:10035300CCC0E075F020E626F608E633F608E6336F
:10036300F608E633F6181818EC33FCED33FDEE33DC
:10037300FEEF33FFC3EC9709ED9709EE9709EF976B
:10038300191919400FFFEC97FC09ED97FD09EE973A
:10039300FE191906D5F0BFECF709EDF709EEF709D9
:1003A300EFF7191919D0E0FCD0E0FDD0E0FED0E062
:1003B300FF222521C582C0E0E52234FFC583C0E0CA
:1003C300E521C3958224F810AF0885832285822115
:1003D3008008858322858221D2AFCEF0A3E520F069
:1003E300A37808E608F0A3DEFAEFF0A3E58124FA88
:1003F300F8E608F0A3E608F0A3E608F0A30808E689
:1004030008F0A3E608F0A315811581D0E0FED0E043
:10041300F8158115811581E8C0E0EEC0E022120BCA
:100423002FB90003020473E4900401780979128060
:1004330002F0A3D8FCD9FA78239000867A01BA0097
:10044300028007E493A3F608DAF97A097B15900092
:100453008778B379018015E493A3AD82AE838A8252
:100463008B83F0A3AA82AB838D828E83D8E9D9E7ED
:100473007582C27583C77404120836758231758319
:10048300217400120836C0D02521C582C0E0E522C0
:1004930034FFC583C0E0E521C3958224F310AF0880
:1004A3008583228582218008858322858221D2AF9C
:1004B300C8F0A3E9F0A3EAF0A3EBF0A37908E709F6
:1004C300F0A3D8FAECF0A3EDF0A3EEF0A3EFF0A3C2
:1004D300D0E0F0A3D0E0F0A3D0E0F0A3E520F0A3B8
:1004E300E5F0F0A322852283852182E0C0E0A3E02A
:1004F300F9A3E0FAA3E0FBA37808E0F608A3DFFA88
:10050300E0FCA3E0FDA3E0FEA3E0FFA3E0C0E0A3C3
:10051300E0C0E0A3E0F5D0A3E0F520A3E0A3F5F06D
:1005230010AF0885832285822180088583228582F6
:1005330021D2AFD082D083D0E0F8D0E03275F01072
:100543008E248F2585822985832885218285228390
:10055300E0CEA3E0CF852982852883EBC9EAC8EDE5
:10056300CBECCAC3E833C8E933C9EA33CAEB33CBAC
:10057300C3EA9EF527EB9FF526B35004AB26AA27C3
:10058300EC33CCED33CDD5F0DAAE24AF2522D083D6
:10059300D082ECC0E0EDC0E0E493A3FCE493A3FDC0
:1005A300ED4C600D120669EC24FFFCED34FFFD8079
:1005B300EFE493A3FCE493A3FDED4C600D1207411C
:1005C300EC24FFFCED34FFFD80EFD0E0FDD0E0FC38
:1005D300E493A3C0E0E493C0E022852283852182D3
:1005E300E0A3FEE0A3F5207808E0A3F608DFFAE035
:1005F300A3FFE0A3C0E0E0A3C0E0E0A3C0E0E0A36A
:10060300C0E0E0A3C0E010AF08858221858322808B
:1006130008858221858322D2AFD083D08202083C11
:10062300D083D082E9C0E0E493A3C386F0C5F095FC
:10063300F0F908E493A386F0C5F095F0700BE4930A
:10064300A3C3994005E9048002A3E475F002A4253D
:1006530082F582E5F03583F583D0E0F9E493A3C016
:10066300E0E493C0E022C0E0C3E4939608740193EE
:100673009618400FE4936670080874019366187027
:10068300007019A3A3C3E49396087401939618A367
:10069300A3400DD0E0D0E0D0E00205CDA3A3A3A3F7
:1006A300A3A3D0E022C0E074F2120489A2AFE43322
:1006B300FED2AFE589A2E150159011DCE0700F7412
:1006C30001F07A207B009011BEE0F912105D75896C
:1006D30000C2C5752300EEA2E092AF7F010204E8D9
:1006E3007404800474028000CCC0E0EDC0E0E52116
:1006F300C39CCCAD2250011D10AF068C218D2280EE
:10070300068C218D22D2AF1207B8D0E0FDD0E0FCD9
:100713002274028000CCC0E0EDC0E0E521C39CCC94
:10072300AD2250011D10AF068C218D2280068C2135
:100733008D22D2AF120796D0E0FDD0E0FC22C0E0BC
:10074300C0F088F0E493667008087401936618702B
:1007530000A8F0A3A3700BD0F0D0E0D0E0D0E0026B
:1007630005CDA3A3D0F0D0E022D083D082CCC0E0CB
:10077300E493A360061207D91470FAE493A3600606
:100783001209251470FAD0E0FCE493A3C0E0E493CB
:10079300C0E022CAC0E0E493A3C582CCC582C5836E
:1007A300CDC583F0A3C582CCC582C583CDC583DA0D
:1007B300E5D0E0CA22CAC0E0E0A3C582CCC582C5A9
:1007C30083CDC583F0A3C582CCC582C583CDC58344
:1007D300DAE6D0E0CA22C0E0E493A3D39C5010E44D
:1007E30093A3C39C400AD0E0D0E0D0E0020789A3E2
:1007F300A3A3D0E022C008C3E096F50808A3E096BF
:10080300420808A3E096420808A3E0964508700151
:10081300D3D008227009080808226016181818C6D1
:10082300C333C608C633C608C633C608C633C6D5DF
:10083300E0EA22C09FF59FE473D09F22D083D08249
:10084300C09FE493C0E0740193C0E0740293F59FEA
:1008530022C0E0C0D0E8C0E0A8A8D2AFC2C77523C9
:1008630000E8A2E792AFD0E0F8D0D0D0E032252163
:10087300F58210AF08F521400C15228008F52140C0
:10088300021522D2AF852283227404800A74038066
:1008930006740280027401C0E0F404120871D0E00F
:1008A300120AF22200C0D0252110AF08F521500C06
:1008B30005228008F52150020522D2AFD0D022BBF9
:1008C3000102E722C082C08389828A83BB0003E0DE
:1008D3008002E493D083D082226016080808C6C33E
:1008E30013C618C613C618C613C618C613C6D5E052
:1008F300EA222521F8E43522F9222521FAE43522DA
:10090300FB222521FCE43522FD22C3E0C696F6082E
:10091300A3E0C696F608A3E0C696F608A3E0C6963B
:10092300F622C0E0E493A36C7009D0E0D0E0D0E0FD
:10093300020789A3A3D0E022252110AF08F52140A7
:100943000C15228008F52140021522D2AF22E06661
:10095300701008A3E066700A08A3E066700408A399
:10096300E06622C3E09608A3E09608A3E09608A3F6
:10097300E096A2D265D03322E76670100809E766D5
:10098300700A0809E76670040809E76622C3E0965F
:10099300F008A3E096F008A3E096F008A3E096F031
:1009A30022C3E493960874019396087402939608FD
:1009B3007403939622C3E697F60809E697F60809A7
:1009C300E697F60809E697F622700422600D18C62A
:1009D300C333C608C633C6D5E0F41822E627F608A3
:1009E30009E637F60809E637F60809E637F622E698
:1009F30057F60809E657F60809E657F60809E657D1
:100A0300F622E056F608A3E056F608A3E056F608E9
:100A1300A3E056F622E056F008A3E056F008A3E060
:100A230056F008A3E056F022E647F60809E647F633
:100A33000809E647F60809E647F622E026F008A388
:100A4300E036F008A3E036F008A3E036F022E02613
:100A5300F608A3E036F608A3E036F608A3E036F678
:100A630022E4C396F608E496F608E496F608E496BC
:100A7300F622600D08C6A2E713C618C613C6D5E052
:100A8300F322C6F4C608C6F4C608C6F4C608C6F4FC
:100A9300C622C3E7960809E7960809E7960809E717
:100AA3009622C3E09608A3E09608A3E09608A3E085
:100AB300962275D00075813F7521017522040002CD
:100AC3000421E6F008A3E6F008A3E6F008A3E6F0A5
:100AD30022600C08C6C313C618C613C6D5E0F42299
:100AE300E0F608A3E0F608A3E0F608A3E0F622CABE
:100AF300C0E0E6F0A308DAFAD0E0FA22E8F0A3E9CE
:100B0300F0A3EAF0A3EBF022E0F8A3E0F9A3E0FA04
:100B1300A3E0FB22EAF0A3EBF0A3ECF0A3EDF022B9
:100B2300E0FAA3E0FBA3E0FCA3E0FD22E5C754F851
:100B33004401F5C77901222521F582E43522F583A5
:100B430022C2AF75D69F0200002212083F89860495
:100B530012083F47870412083FDE880412083F3516
:100B6300890412083F6D890412083FEECE03120870
:100B73003F6ACF0312083F9DCF0312083FCBCF0339
:100B830012083FE8D10312083F04D20312083F4979
:100B9300D20312083FCED20312083F1AD30312081E
:100BA3003FACD30312083F84D40312083FE0D403BD
:100BB30012083F3ED50312083FBBD50312083FF18D
:100BC300D50312083F3CD60312083F62D60312082E
:100BD3003FF2D60312083F89D70312083FD5D70344
:100BE30012083F06D80312083F3DD80312083FCC32
:100BF300D90312083F96DA0312083F66DB03120893
:100C03003F14930412083F1F930412083F6F930489
:100C130012083FBD930412083FD7940412083FE71C
:100C2300950412083F8C970412083FE298041208B7
:100C33003F039B0412083F119B0412083F1F9B04B0
:100C430012083F569B0412083FCB9B0412083FFA3D
:100C53009B0412083F159C0412083F0AA8041208BB
:100C63003F85A80412083F7EDB0412083F96DB048D
:100C730012083FFBFF0112083FC3DB0412083F3792
:100C8300D70412083F47D70412083F53D70412086A
:100C93003FE4D70412083F35D50412083FB8D50402
:100CA30012083F1ED60412083FF9FF0312083FEB58
:100CB3007F0012083FEE7F0012083FF17F00120809
:100CC3003FF47F0012083FF6FF0212083FF9FF02CC
:100CD30012083FF87F0012083FE3CE0412083F1BBF
:100CE300CF0412083F5DD00412083FE1D00412087C
:100CF3003F1AFB0212083F46FB0212083F8AFD021D
:100D030012083FCAFD0212083F0AFE0212083F1EE4
:100D1300FE0212083F37FE0212083F29FF021208A3
:100D23003FCEFF0212083FE2FF0212083F837E001C
:100D330012083FA77E0012083FC07E0012083FF250
:100D43007E0012083F227F0012083F4F7F001208E7
:100D53003F597F0012083FBB7F0012083FCA7F0044
:100D630012083FD47F0012083FE17F0012083F1DA5
:100D7300C50412083F3DC50412083F7CC504120890
:100D83003F97C50412083FB6C50412083F1CC604AA
:100D930012083F25C60412083F82C60412083F9179
:100DA300C60412083FB5C60412083F76C7041208EA
:100DB3003F83C70412083F94C70412083F0BDB04A8
:100DC30012083F23DB0412083F4FDB0412083F598C
:100DD300A30412083FB3A40412083FC1A4041208D9
:100DE3003FD4A40412083FE9A40412083FFEA4045C
:100DF30012083F11A50412083F85A50412083FEA13
:100E0300A50412083F72A60412083FEEA6041208B6
:100E13003FB2A70412083FC2A70412083FD1A70498
:100E230012083F44D90412083F68D90412083F90BE
:100E3300D90412083FB8D90412083F5CCA04120847
:100E43003F83CA0412083FA1CA0412083F14CB040B
:100E530012083F4AC20412083F63C20412083F6FDC
:100E6300C20412083F83C20412083FA1C20412083D
:100E73003FABC20412083FB5C20412083FC8C20404
:100E830012083F4EC30412083FC3C30412083FF2C3
:100E9300C30412083F40C40412083F8FC40412085D
:100EA3003FAAC40412083FB4C40412083FC5C404D3
:100EB30012083F08C50412083F64DA0412083FAF62
:100EC300DA0412083FB3890412083FDD89041208CB
:100ED3003FFA890412083F0D8A0412083F238A044B
:100EE30012083F818A0412083FB98A0412083FADF1
:100EF3008E0412083FF28F0412083F259004120853
:100F03003F88900412083FE8910412083F109204AE
:100F130012083F25920412083F35920412083F79C4
:100F2300920412083FD4920412083FE49204120878
:100F33003F05D40412083F1FD40412083F47D404CA
:100F430012083F60D40412083F84D40412083FA25D
:100F5300D40412083FB9D40412083FE7D40412089A
:100F63003F02D50412083FEAD70412083F2ED804E3
:100F730012083FA1B50412083FB1B50412083FB6E9
:100F8300B60412083FE8B60412083F18B704120863
:100F93003F3BB70412083F52B70412083F8CB70413
:100FA30012083FF1B70412083F33B80412083F7226
:100FB300B80412083FA3B80412083FCEB8041208BD
:100FC3003FE4D00412083FF6D00412083F0AD204CB
:100FD30012083F97D20412083F14FF0312083F4A36
:100FE300FF0312083F8CFF0312083F9CFF03120804
:100FF3003FABFF0312083FEFFF0312083F2C9C0493
:1010030012083F6F9C0412083FD49C0412083FF15E
:101013009C0412083F939D0412083F9C9D041208F0
:101023003FE19D0412083F0A9E0412083F179E04E5
:1010330012083F929E0412083F1D9F0412083F624C
:101043009F0412083FAD9F0412083F12A004120828
:101053003F35A00412083FA6A00412083FFBA004DA
:1010630012083F36A10412083F6BA10412083F7D0A
:10107300A10412083F8FA10412083FAEA104120875
:101083003FB7A10412083F6AA20412083FADA204AD
:1010930012083FEBA20412083FC5D20412083FAD69
:1010A300CC0412083FE3CC0412083F2BCD041208F2
:1010B3003F84CE0412083F00AB0312083F19AC0370
:1010C30012083F53AC0312083F01AE0312083F2F2F
:1010D300AE0312083F95B00312083FD5B0031208C0
:1010E3003F79B20312083F09B30312083F5DB3030C
:1010F30012083FFFB30312083F41B40312083F83B2
:10110300B40312083FE0B50312083F2EB7031208D9
:101113003F65B90312083F93B90312083FBAB903F5
:1011230012083FC3B90312083F1ABA0312083FB5A6
:10113300BA0312083FBDBD0312083F44BE031208A1
:101143003F9CD80412083FB4D80412083FBED80409
:1011530012083F12D90412083FBBDA0412083FC534
:10116300AC0412083FDBAC0412083F7CAD04120848
:101173003FBBAD0412083FD8AD0412083F09AE04CB
:1011830012083F56AE0412083F89AE0412083FC44A
:10119300AE0412083FBFB00412083F27B10412087F
:1011A3003F37D60412083F96D60412083FD4D6041C
:1011B30012083F15D70412083F25FF0112083F36D6
:1011C300FF0112083F57FF0112083F86FF01120873
:1011D3003F95FF0112083FCAFF0112083FE4FF01D8
:1011E30012083FEBAC0212083FF7AC0212083F595A
:1011F300AD0212083F63AD0212083FF4AD021208BC
:101203003F30AE0212083FE0AE0212083F31AF0298
:1012130012083FC9AF0212083F42B00212083F0B47
:10122300B20212083F05B40212083F1BB5021208AE
:101233003F5EB60212083F0DB70212083FB3BB026E
:1012430012083FA6BC0212083F4ABD0212083F6FB4
:10125300BD0212083F0BBE0212083F20BE02120855
:101263003F44BE0212083FB2BE0212083FCFBE0285
:1012730012083FF9BE0212083F95C00212083FB69A
:10128300C00212083F5CC10212083FA4C102120847
:101293003FF9C10212083F99C20212083FFDC20280
:1012A30012083F5BC30212083FF8C30212083F74DF
:1012B300C40212083FA8C40212083F17C50212084D
:1012C3003F49C60212083FC8C70212083F65C80259
:1012D30012083FA4CA0212083F1BCB0212083F4563
:1012E300CB0212083F3FCD0212083F22D002120860
:1012F3003F4FD10212083F26B90412083FE0B90458
:1013030012083F46BA0412083FEEBA0412083F3FE0
:10131300DC0312083FD5DC0312083F04DD03120887
:101323003FDDDE0312083F13DF0312083F60E003D3
:1013330012083F02E20312083F74E30312083F64FA
:10134300E50312083FF1E50312083FE5E60312083F
:101353003F2AE80312083F56E80312083FC3E80395
:1013630012083F49960312083F78960312083FF08C
:10137300960312083FF3970312083F4F980312088E
:101383003FC6990312083FE2990312083F349A03B8
:1013930012083F779A0312083F8A9A0312083FDC28
:1013A3009A0312083F979B0312083F119C031208EC
:1013B3003F3B9C0312083F739C0312083FEF9D03BE
:1013C30012083FC09E0312083FF79F0312083FC84D
:1013D300A00312083F52A10312083F93A10312086E
:1013E3003FADA10312083FF6A10312083F16A20363
:1013F30012083FACA20312083F3CA30312083F9616
:10140300A30312083FDAA30312083F6BA6031208D3
:101413003F8EA70312083FCAA70312083FBCA803C5
:1014230012083FE4A80312083FE7A80312083FF19C
:10143300A80312083F04A90312083F83A903120853
:101443003FB9A90312083FE5A90312083F0CAA03F9
:1014530012083F30AA0312083FA9AA0312083FB794
:10146300AA0312083FEAAA0312083FDDD9041208AF
:101473003FE9D90412083F27DA0412083FFCFF02B0
:1014830012083F00800312083F23800312083F76AF
:10149300810312083FBF810312083F27820312080A
:1014A3003F85820312083F88820312083FD48203D8
:1014B30012083F47830312083FCF830312083FD22A
:1014C300830312083F5C840312083F9D84031208C0
:1014D3003F93880312083F2B8A0312083F998A031C
:1014E30012083F128E0312083F4B8F0312083FBEB0
:1014F300900312083F5C910312083F69920312089C
:101503003FB6940312083F93BE0312083F3DBF0347
:1015130012083FA3BF0312083FBCBF0312083F38A2
:10152300C00312083F8EC00312083FDEC003120837
:101533003F45C10312083FBEC20312083FECC30379
:1015430012083F71C40312083F77C60312083F20F5
:10155300C70312083FC9C70312083F8BC803120809
:101563003F34CA0312083FDCCB0312083F8DCC0380
:1015730012083FA5CD0312083F12640012083F86EC
:10158300640012083F80FE0112083F126500120832
:101593003F5B650012083FA5650012083FDD65004B
:1015A30012083F5B660012083FB5660012083F0948
:1015B300680012083F9A680012083FF26800120898
:1015C3003F0C690012083F34690012083F8C690020
:1015D30012083FFB6B0012083F1A6C0012083FFE13
:1015E3006C0012083F2E6E0012083FEC85041208AF
:1015F3003FFA6E0012083F5B6F0012083F01700054
:1016030012083FCF710012083FCF720012083F4DFE
:10161300740012083F2E760012083F9478001208D7
:101623003F447A0012083F147B0012083F827B007C
:1016330012083F997B0012083F917C0012083F81FA
:101643007D0012083FEC7D0012083F69BF041208B9
:101653003FB5C00412083F72C10412083FD6C1044B
:1016630012083F64BC0412083F7FBC0412083FC346
:10167300BC0412083FE9BC0412083F0FBD04120862
:101683003F27BD0412083F8ABD0412083F9FBD04D3
:1016930012083FC2BE0412083FCBBE0412083FD457
:1016A300BE0412083FDDBE0412083F34B104120821
:1016B3003F33B50412083F38B50412083F3AB50466
:1016C30012083FE9C80412083FA5DB0412083F5281
:1016D300DB0412083F61D50212083F94D5021208B9
:1016E3003F00D60212083F9BD60212083F38D702AA
:1016F30012083F7DD70212083F9FD70212083FB856
:10170300D70212083FDED70212083F00D8021208A0
:101713003F3ED80212083F82D80212083FA4D802E3
:1017230012083F06D90212083FCDD90212083F849E
:10173300DA0212083FF6DA0212083FC1DB0212088E
:101743003F14DC0212083F7ADC0212083FB4DC02C9
:1017530012083F06DD0212083F74DD0212083FDF64
:10176300DD0212083FE2DD0212083F63DE021208C7
:101773003FFADE0212083F7ADF0212083F99DF02C6
:1017830012083FFDE00212083F0AE10212083F1669
:10179300E20212083F23E20212083F2CE20212087F
:1017A3003F04E40212083F1EE50212083F97E502D8
:1017B30012083F09E60212083F2BE60212083FBF58
:1017C300E60212083F93E80212083F6AEC0212088D
:1017D3003F7EEC0212083F8EEC0212083F98EC02A7
:1017E30012083FA1EC0212083FAAEC0212083FB410
:1017F300EC0212083FE1EC0212083F0AED02120864
:101803003F15ED0212083F39ED0212083F5DED026C
:1018130012083FC7ED0212083F0DEE0212083F2ADD
:10182300EE0212083FA7EE0212083FDEEE02120894
:101833003F1DEF0212083F6AEF0212083FF0EF026A
:1018430012083FBEF10212083F41F20212083F257F
:10185300F30212083F8CF50212083FE5F502120865
:101863003F2FF60212083F8AF70212083FBFF70222
:1018730012083F11F80212083FC6F80212083F751A
:10188300F90212083FB2F90212083F47FA0212089E
:101893003FB3FA0212083FD88F0112083F0A9001A2
:1018A30012083F38900112083F0E920112083FEED2
:1018B300920112083F46930112083F8194011208D6
:1018C3003FCD940112083FF6970112083FE99A01B0
:1018D30012083F399C0112083FCF9C0112083FDBDD
:1018E3009C0112083F0D9D0112083F909E011208B2
:1018F3003F9E9F0112083FC89F0112083F2FA0017E
:1019030012083F88A00112083FEEA00112083F050C
:10191300A30112083F94A40112083F5EA501120817
:101923003FA4A60112083FF4A80112083FC4AB016B
:1019330012083FD1AB0112083F58AC0112083FEC2B
:10194300AC0112083F2FAD0112083FB5AD011208DB
:101953003FD2AD0112083F02AE0112083F37AE017C
:1019630012083F07AF0112083FB0AF0112083F361C
:10197300B20112083F56B30112083F41B4011208E5
:101983003FC3B40112083FFAB80112083F37B90147
:1019930012083F8FB90112083FC2B90112083F2C48
:1019A300BA0112083F62BA0112083FEDBA011208E8
:1019B3003F45BB0112083F1CBC0112083FD5BC01C7
:1019C30012083F70BD0112083F78C00112083F940E
:1019D300C10112083F37C50112083F2BC601120887
:1019E3003F2EC60112083F5DC60112083F63C801BE
:1019F30012083F3CC90112083F7FC90112083FD5B5
:101A0300CA0112083F14CB0112083FA6CB011208EA
:101A13003FDACB0112083F9FCC0112083FB7CE013A
:101A230012083F28CF0112083F68CF0112083FF682
:101A3300CF0112083F1ED10112083FE0D101120865
:101A43003FE7D30112083FFFD30112083F13D4012C
:101A530012083F4BD40112083F79D40112083FF812
:101A6300D50112083F1DD70112083F81D701120883
:101A73003F33D80112083F63D80112083F2AD90126
:101A830012083FC2D90112083FE8DB0112083F1DCB
:101A9300DC0112083F80DC0112083FAFDD011208B0
:101AA3003F57DE0112083F88DE0112083FA0DE0126
:101AB30012083F2FDF0112083FE3E10112083FBB89
:101AC300E30112083FD7E30112083FF3E3011208D1
:101AD3003FC1E40112083FB4E80112083F1B27008D
:101AE30012083F4D270012083F3C2B0012083F8885
:101AF3002B0012083FCE2B0012083F702C00120857
:101B03003FCC2C0012083F112D0012083F582E0025
:101B130012083F6C2F0012083F5B330012083FDFAF
:101B2300330012083FEC340012083F483500120816
:101B33003F38370012083FAD370012083FB7370070
:101B430012083FC4370012083FEF370012083FD690
:101B5300380012083F80390012083FFE390012088E
:101B63003F1E3A0012083F473A0012083F693A0005
:101B730012083FC93C0012083F8F3D0012083FD4B2
:101B83003D0012083F513E0012083F023F00120879
:101B93003F343F0012083F7A3F0012083FB63F0030
:101BA30012083F06400012083F5A400012083FB097
:101BB300400012083FFC400012083F694100120830
:101BC3003FE4410012083FAF430012083FAF440017
:101BD30012083FD4450012083F13490012083F265C
:101BE3004C0012083FE34C0012083F274D00120837
:101BF3003FD74E0012083FEB4E0012083FF54E0050
:101C030012083FFF4E0012083F0B4F0012083F27F8
:101C13004F0012083FD24F0012083F115000120824
:101C23003F1B500012083F25500012083F955000FB
:101C330012083FE0500012083FF5510012083F51CF
:101C4300520012083FD2520012083F91530012086B
:101C53003F9A540012083FCE550012083FBC56006D
:101C630012083FD4560012083F2F570012083F4D69
:101C7300570012083F95570012083FBC570012083F
:101C83003F57580012083F1D590012083FAF590033
:101C930012083F295A0012083F435B0012083FF025
:101CA3005B0012083F185D0012083F685D001208D0
:101CB3003FCC5D0012083F2E5E0012083F5C5E00C1
:101CC30012083F805E0012083FB55E0012083FE62F
:101CD3005E0012083F195F0012083F395F001208C7
:101CE3003FA15F0012083F95600012083FF06000BB
:101CF30012083F19610012083FA1610012083F2436
:101D0300620012083F4F620012083F34630012085A
:101D13003FFCE80312083F34E90312083F55E90387
:101D230012083F97E90312083FF9E90312083F033A
:101D3300EA0312083F13EA0312083F4EEA031208AC
:101D43003F2EEE0312083F1BF00312083F01F2037C
:101D530012083F98F20312083F3AF30312083F2494
:101D6300810212083FA2810212083FFE810212087B
:101D73003F49820212083F64820212083F8F8202A7
:101D830012083FAC820212083FB8820212083F4F8A
:101D9300840212083F68840212083FED840212088D
:101DA3003F00850212083F1F850212083FC38502C8
:101DB30012083F44870212083FF7880212083F8D3A
:101DC300890212083F90890212083F008A02120812
:101DD3003F1E8A0212083FB58A0212083FFD8A029B
:101DE30012083F008B0212083FC68B0212083F33D2
:101DF3008C0212083F598C0212083FE48C0212082D
:101E03003F028D0212083F488D0212083FFC8D02EB
:101E130012083F468E0212083F758E0212083FD207
:101E23008E0212083F078F0212083F338F021208F7
:101E33003F418F0212083F8E8F0212083FFE8F022E
:101E430012083F47900212083F93900212083FBFC7
:101E5300900212083FCA900212083FE8900212084B
:101E63003FD3910212083FDD910212083F189202FC
:101E730012083F28920212083F31920212083F854E
:101E8300920212083F99920212083FC89302120865
:101E93003FDF930212083FF4930212083F82940239
:101EA30012083FC7940212083F53950212083F5E7F
:101EB300950212083FA0960212083FBB9602120831
:101EC3003F07970212083F76970212083FAF970227
:101ED30012083FC9970212083F0B980212083FDB12
:101EE3009A0212083F889B0212083FF59B021208D0
:101EF3003F359E0212083F4D9E0212083F509E023C
:101F030012083F5C9E0212083F709E0212083F783F
:101F13009E0212083FAB9E0212083FAD9F021208B9
:101F23003F34A00212083FA4A00212083F26A102D8
:101F330012083FE7A10212083F06A20212083FA7B8
:101F4300A20212083F04A30212083F07A3021208C9
:101F53003F34A30212083F49A30212083FBDA30264
:101F630012083F0CA50212083F12A60212083F9D59
:101F7300A60212083FB8A70212083F80A80212085F
:101F83003FB1A80212083FD4A80212083FDDA802FD
:101F930012083F0CA90212083F9CA90212083F52E3
:101FA300AA0212083FC7AA0212083F6EAB02120828
:101FB3003FE3AB0212083F1AAC0212083F58AC02CF
:101FC30012083F8EAC0212083FD4FC0112083F9264
:101FD300FC0112083FB2FB0112083F9CFB011208EF
:101FE3003F5DFB0112083FB8FA0112083FB4F70145
:101FF30012083FA2F50112083F6FF50112083F0ACC
:10200300F50112083F9DF40112083F5CF401120828
:102013003F95F30112083F30F30112083FDBF20151
:1020230012083F7EF20112083F55F10112083FF2F8
:10203300F00112083F3CF00112083F37F00112088B
:102043003F2BF00112083FDEEC0112083FB8EC0110
:1020530012083F5DEC0112083F96850412083F8287
:10206300850412083FE1840412083FE58304120843
:102073003F0F830412083F18810412083F6B80044A
:1020830012083F08EC0112083FC9EB0112083FB6E2
:10209300EB0112083FABEB0112083F00800412086A
:1020A3003F87EB0112083FC2E90112083F41E901F2
:1020B30012083FFDE80112083FF5FE0112083FD662
:1020C300E80112083FAB6E0012083FC9FE03120875
:1020D3003F70FE0312083F32FE0312083F05FE0362
:1020E30012083FD1FD0312083F70FD0312083F5849
:1020F300FD0312083F34FD0312083FFDF9031208E4
:102103003FC9F70312083FB0F50312083F3FF50339
:1021130012083FEEF40312083FA8F40312083FEB42
:10212300FE0112083F11F40312083FCE64000000C1
:102133000080FBE4738F0001009F15870001009D61
:1021430015350004006615250002006A15260002F5
:10215300006C15270002006E152800010078152970
:10216300000100791584000400F5128600010017B0
:10217300152A0001007A152B0001007B152C0001A4
:10218300007F152D00080001132E00010080152F7C
:102193000001008115300001008215310001008328
:1021A30015320001000913330001000A1334000142
:1021B300008415360001000B133800010085153922
:1021C3000001007E15830002009B156300010017C8
:1021D30013640001007C15650001007D156D00018D
:1021E30000181371000800F912660001009A1543E4
:1021F3000001008B15440002008C15450001008E80
:1022030015460002008F15470008000F1348000110
:102213000091154B0001009215040001009E15A1C9
:10222300000100A21537000100A11588000100A0DC
:10223300153C0001000C133D000100861549000206
:102243000093156700010019134D00020095154E08
:1022530000010097154F00020098153E0001008A07
:1022630015510001000D13520001008815530001A0
:10227300008915540001000E130000000000000047
:1022830001363601010001020100010301000104CE
:1022930001060605020000070100340801000F09CA
:1022A3000401010D0100FF0E0800001702000019D0
:1022B3000100FF1A0100011B0100FE1C0100081DA3
:1022C3000200001F01000120010001210200002380
:1022D30001000F2402000026010001270100082845
:1022E3000200FF2A0100072B0102402C0100002DF0
:1022F3000100012E0100012F0100FF30010B1D31F0
:102303000800003A0100083B01000F3C0100013DB9
:102313000100FF3E04000042040000460400004A9E
:102323000400004E04000052040000560400005A4A
:10233300040000000003002001D48F0000000020EF
:1023430001D68F000004004201718E000005004297
:10235300012D8F000006004201228E00000700308D
:1023630001D78F0000100042033215000011003026
:1023730003ED110000120010034315000094A1297E
:1023830003C311000095A12903C111000096A120E8
:1023930003C511030000002103EE110000FDFF211E
:1023A30001D08F0300FDFF2101D08F0103710301D1
:1023B30003010301030103010322030203010310C9
:1023C30003000300030003000300030003000342B0
:1023D300030003240306030003000304031203257D
:1023E300032303250323030403040300030003005F
:1023F30003440300030003230300036503210035A3
:102403000381030003050300030003000300032506
:1024130003230303027102300160021102700201FF
:1024230002020202028002100261023A00410063CA
:1024330002730272026202430200021302380000B6
:10244300020002040212020002000200020002045F
:10245300020402370037003C024402000239000044
:1024630002000265020002350281020002050282B7
:102473000283020002010171010101010111010145
:10248300013101010101018001100161013B0014CF
:10249300006301730172016201430100011301062C
:1024A300013D01350004011201000100010001009A
:1024B3000104010401330133013C014401320136BB
:1024C30000000100016501000135008101000105E3
:1024D30001820183010001030071003001600011DA
:1024E30000700031022003500480001000610000DE
:1024F30000140063007300720062004300000013C5
:1025030000060000000000040012000000000000AC
:1025130000000004000400370037003C02440000C0
:10252300000000000000006500000035008100008D
:1025330000050000008300000036000100060000D3
:10254300000F000000000000000000000000000376
:10255300FFFF00000403FFFF0000FFFF0FF4010073
:1025630005C4040320000100000B0000000000006C
:10257300000003010F000000000000000000000045
:102583000000000000000000000000000000000048
:1025930000000000000000B512DF12BB120112C1DF
:1025A30012E512C112F112C7120112C112E512CDC6
:1025B30012011200000000D31201120000000000FB
:1025C300000000D91201120000000000000000000A
:1025D30000000000000000000000000000000000F8
:1025E30000000000000000000000000000000000E8
:1025F30000000000003115010031150200A714028C
:1026030080A1140300AD140400B3140480B91405AD
:1026130000BF140600CB143100DD143300E314347F
:1026230000E914FFFF000007ECFDFDFDECDCDCCC52
:10263300BCACAC9C9C8C7C7C6C6C5C5C5C4C4C3C07
:102643003C2C2C1C1C03EAF5E5D5D5C5B5A5959501
:1026530085857575656555554545353525251515A7
:10266300050A551B021F1B052B1B07251B0C071BEC
:102673000D131BFF000000160F00000B150B0200CB
:1026830002220F3300000E0F5A6967426565416CE1
:102693006C69616E63653039D0D1D2D3D4D5D6D7C6
:1026A300D8D9DADBDCDDDEDF303016181920231A47
:1026B3001C1E3000034D4C4651181A25050200011B
:1026C300191618161618230300303017181921305D
:1026D3001B1D1F30003C40423A3F3F392F47300C0F
:1026E3000E020B040B0A0708000F0204020101018A
:1026F300010902E803000000BE040A01000E000302
:1027030000E803FF04090F03101E030A0C04040866
:1027130028020C0508151E0474F71203B5E990137B
:10272300EEF09013A3E4F0120FC1901406E4F0A3AB
:10273300F09013EFF0A3F0121CA5120FC79013270C
:10274300E4F0A3F012169302408174F01203B574FF
:10275300D312093B125ADD548060669013EEE0F900
:102763001210338A088B09AF09EA4F604C7C008052
:10277300010CEC75F003A4F8A9F0746428F58274D5
:102783002639F583E493F46029E493F88A828B83F2
:10279300E06870DDEC75F003A4F8746528F58274C5
:1027A3002639F583E493C0E0740193F583D0821254
:1027B3002136AA08EFFB12102112620F6480022B4C
:1027C3001C852182852283A3E05420601F121BBB3A
:1027D3008A088B09AF09EA4F600A121B13AA08EF94
:1027E300FB12102112620F6420022B1C85218285AB
:1027F3002283E0A2E050429013A8E0640F702E9071
:10280300074F12621A90074FC3E094E9A3E09403C1
:10281300400A7A007B809012191241637900121AE0
:10282300E9E96009901566120B23121B01852182C9
:10283300852283E06401022B0154207003022B06DE
:102843007A207B009013EEE0F9121189EA4B4C4D8C
:10285300701A901402120B0BE8494A4B700E75085C
:1028630001750900750A00750B00806D750C007504
:102873000D00750E00750F0012119B8A088B098CD1
:102883000A8D0B901402120B0BE8494A4B603190EE
:10289300140278081207F8400E750CFF750DFF75CA
:1028A3000EFF750F7F801985080C85090D8C0E8D21
:1028B3000F901402780C12090D7401780C1208DCC5
:1028C300850C08850D09850E0A850F0BE50845095A
:1028D300450A450B7003022A607C0079047A007B69
:1028E30000121B918A0C8B0DAE0CAF0D0229A47440
:1028F30002120B3A74FFF07403120B3A74FFF07474
:1029030004120B3A74FF1241D61259977407120935
:1029130005125C4DE96401706A122B284480F8A308
:10292300E0F97428120B3AE8F0A3E9125EE1E0C083
:10293300E0742A120B3AD0E01241C35408601674B3
:1029430028120B3AA3E04401122B35C0E0742C1279
:102953000B3AD0E0F0125B206011E8240B12331B1A
:10296300F87416120B3AE8F0A3E4F0908FA5120660
:10297300E37406120905740B1208FD1217C57404DB
:102983001208A78E828F83A3A3A3A3A3A3A3A3A3A6
:102993007406122B35F9121B737405120B3A125C71
:1029A300A4EE4F7003022A607C007904EEFAEFFB79
:1029B300121B917405120B3AEAF0A3EB123EEDE001
:1029C300F50CA3E0F50DE4F50EF50F7808790C127C
:1029D3000A954023EE2404F8E43FF985080C8509A1
:1029E3000D8882F583C3E0950CF0A3E0950D126387
:1029F30004E84970A4800C8E828F83A3A3A3A3E46D
:102A0300F0A3F08E828F83A3A3A3A3A3A3A3A3A363
:102A1300A3E064018E828F83A3A3A3A3A3A3702047
:102A2300E0540460030228F28E828F83A3A3A3A33E
:102A3300A3A3A3A3A37406F07AB7122C5B02299C69
:102A4300A3A3A3A3E060030228F28E828F83A3A330
:102A5300A3A3A3A3A3A3A37401F002299C121B6144
:102A63007C0079017A007B00121B91EA4B60031210
:102A7300415C7C0079047A007B00121B91EA4B7065
:102A83001380448A828B83A3A3A3A3125CBCEE9816
:102A9300EF99400B8A828B83A3A3A3A3125CA47C2C
:102AA300007904121B918B0BA90BEA4970D5C3E57E
:102AB300089EE5099F500DC3EE9508FEEF9509FFAB
:102AC300EE4F700D12415C901402122B2EA3F08076
:102AD30024EE2EFEEF338E08F509E4F50AF50B78A4
:102AE3000812088C7A20122D041208A712119B9049
:102AF3001402120B17852182852283E06420FAA336
:102B0300E08016A3E05404601312537412208379F7
:102B1300011234E212620F6404FB80047A007B002A
:102B2300742D025AFCEE125B0AE022E4F0A3F0A338
:102B3300F0221241C8A3A3E022C082C08374EA1228
:102B4300093B7C167D007900AA21AB22121009747F
:102B530008120B3A7402F09013971255B0122B7CA3
:102B63007409120B3A1255C87413120B3AE4125239
:102B7300471216877416024492E8F0A3E9F0901303
:102B8300A1125C8C2274F71203B574DA12093BEAC2
:102B9300FEEBFFEA4F602DAC21AD22121BD9740668
:102BA300120B3AE0601E7417120B3AE0FD74011227
:102BB3000B3AE0FCEEFAEFFB7900121ABFE960046E
:102BC30079A480027900742602407E74F71203B55B
:102BD300EAFEEBFF8A82F583A3A3A3A3A3A3E05496
:102BE3004060178A828B83125ABD1243A160067A12
:102BF300FF7BFF8015125AB98003901397125997E0
:102C030074FE6A700374FF6B6041125AB9125AE37F
:102C1300121C6FE98E828F83600B1256A61262CF4D
:102C2300E4F0A380031262BEF07CEF7D1A8E828FE4
:102C330083123A17E9F5087015EE4F60097901EE32
:102C4300FAEFFB121B6DA9080240817508CDAA0893
:102C5300122C5BE960E380EE8E828F831256AA24E6
:102C63000CF582E438F583E0F9121AFB2274F612AC
:102C730003B5E9FEEAFF7A0F7B0012101BEA4B60F3
:102C83001A8A828B83740CF0EEA3A3F0EF8A828BF3
:102C930083123E3C1252A57900802BEEF9121B974A
:102CA3008B09A909EA49601C8A828B83A3A3A3A386
:102CB300A3A3A3A3A37406123E45E0F9121867EE7B
:102CC300F9121B73791002509074F41203B58A0839
:102CD3008B098C0A8D0B9013A8E0640F701EEA4BCE
:102CE3004C4D60189013A3E064086005E064047021
:102CF3000B780812088C122D021208A7022F677A8C
:102D0300017B009013EEE0F912117774042274F43E
:102D13001203B574FC12093BEAFEEBFF8A82F583CA
:102D2300A3A3E0F9121B978A088B09EA4B700302ED
:102D33002E4A8E828F83A3A882A983E0C0E0EA1281
:102D4300529BD0E0123CAB64F160288E828F83A348
:102D5300E064CD601E8E828F83A3E0641A60148EBC
:102D6300828F83A3E064E9600A8E828F83A3E06489
:102D7300E170337900121B6DE9602BE5082404F53B
:102D83000AE43509F50B850882850983A3A3A3A368
:102D9300A3A3123D81123C89120FD3850A82850BAE
:102DA30083125AE380708E828F83A3E0C0E07402A3
:102DB300120B3AD0E01244A01245C3123731C0E0DF
:102DC3007403120B3AD0E0F0E508125F8C1233DA89
:102DD300E0AA21AB2270051217BF8003121C57749F
:102DE30002120B3AE064E9702D850882850983128B
:102DF3003540750A01780A120898750AE9780A12AB
:102E03000898123C5D1236FEFCA3E0FD8A828B8398
:102E13001237281208A7850882850983A3A3A3A3D1
:102E2300A3A3A3A3A3E06402701285088285098388
:102E3300A3A3A3A3A3A3A3A3A37406F08E828F8348
:102E4300A3A3E0F9121B73121B6190156C12334C90
:102E53007404022F6474F41203B5EAFEEBFF7508E1
:102E6300008A82F583A3A3A3A3A3E06038750808AF
:102E730012598A79FF12193FEA4B601075082C8E9C
:102E8300828F83A3A3A3A3A3E0D2E0F08E828F83D8
:102E9300A3A3A3A3A3E0540364016003022F53433A
:102EA3000811022F53EA24181248896036EA241ABB
:102EB3001248896003F47013125C6C7003A3E06919
:102EC3006003022F53750822022F53EA241B122F8B
:102ED30057241A124889FAEE2419124889F912184C
:102EE30055806D8A828B83A3A3A3A3A3A3A3A3A3C8
:102EF30012333770037508018E828F83125C7070F2
:102F030003A3E0697006E508D2E1F508E50860155A
:102F13008E828F83A3A3E07006E508D2E58004E5E3
:102F230008D2E6F50812439464017006E508D2E07E
:102F3300F5088E828F83A3A3E06015EE241D124B48
:102F4300A8F9121C5DE964016006E508C2E0F50812
:102F5300A9088010F582E43FF583126327EA2274FF
:102F6300091208A77F040205DD74F01203B574D7B4
:102F730012093BEAFEEBFF8A82F583A3A3A3A3E036
:102F8300600E90156A125B27600690156A12334C27
:102F930074031209058E828F83A3A3A312547312A1
:102FA3005995121BD9E970030230FD78017405129B
:102FB3000B3AE0C39402400278007407120B3AE024
:102FC300C3940240027800740C120B3AE064F87068
:102FD30003A3E0F470030230FD740C120B3AE064B7
:102FE300F97003A3E0F470030230FD740C120B3A82
:102FF300E064FA7003A3E0F470030230FD740C1272
:103003000B3AE064FB7003A3E0F470030230FD7439
:1030130006120B3AE0F9901391E06960030230FD68
:10302300E8A2E040030230FD7427120B3AE060038C
:103033000230FDEE2413125C827422120B3A1254F6
:103043007D241C125C827410120B3A1255C8740949
:10305300120B3AE0601D741A120B3AE0FD7404126D
:103063000B3AE0FC8E828F831259957901121ABFB5
:10307300E9703B74031208FD121B0DE9F50C74098A
:10308300120B3AE0702C90138BE060267422596483
:1030930022601F744259644270147420120B3A1256
:1030A3003331600E7420120B3A12332A60047ACF44
:1030B300804AE9A2E6504D7420120B3A124BAE241B
:1030C300FD600F14600C24FD600824FD600424FEE1
:1030D30070287420120B3A123323700E7420120BD3
:1030E3003A1251D4A3E0640D601A74031208FD125E
:1030F3001C87E96401700D0233137AD37B00121429
:103103007D023313EE242DF582E43FF58312353728
:103113007003A3E069701D75080078081208987899
:1031230008120898EE242F124889F912333D1237FA
:10313300281208A77409120B3AE070030231DB125C
:10314300333D125997121CD58A0E8B0FEA4B70032D
:1031530002326C7404120B3AE0F88E828F83A3A3BD
:10316300E028F8A3E03400F9E8240D12331BF88AB1
:10317300828B83A3A3A3E068600EE88A828B83A378
:10318300A3A3123E35122B2F7904E9120B3A1248EE
:10319300A8A3E02AF8A3E034008882F583A3AA82D7
:1031A300AB8312100F8A088B098C0A8D0B850E8254
:1031B300850F83A3A3A3A378081207F84003023360
:1031C30013908F897808120A51850E82850F83A385
:1031D300A312632DA31245CC9013A3E064046008EB
:1031E300E064096003023313E50CA2E540030232F5
:1031F300A6EE242F124891F0EE2430124889C0E045
:103203007401120B3AD0E0F0EE2431124889C0E089
:103213007402120B3AD0E0F07414120B3AE064011A
:103223007026740E120B3A123C84241312488968D8
:103233007003A3E0697011740C120B3A12333770E8
:10324300077414120B3AE4F0EE2425F582E43FF5FB
:10325300831206E3740412090574071208FD12179A
:10326300C574041208A70233139013E8E0640160E5
:10327300030231DB7420120B3A1233317009E50C6F
:10328300A2E650030231DB7410120B3AE0F4700330
:10329300A3E0F4607BEEFCEFFD74031208FD121B48
:1032A30019806DA2E650697420120B3A1256B6705B
:1032B30016741A120B3AE06402705574031208FD77
:1032C3007900121C5180497420120B3A12332A7070
:1032D30014741A120B3AE06404703574031208FD77
:1032E300121C45802B7420120B3A123323700C7975
:1032F3000074031208FD121C9380157420120B3AFC
:103303001251D4E0640C700874031208FD121C9F60
:103313007429025AFCE82406F582E439F583E02295
:10332300125AC3E0640322125AC3E0640722124B09
:10333300B26406221243A5640222EE242BF582E432
:103343003F126325EE12437A22E0F508A3E0AA08B0
:10335300FBE4FCFD121B012274F41203B5EAFEEB3D
:10336300FF8C088D09901309E0600F125C6C7003E9
:10337300A3E06970051218438053790012598A1229
:1033830018738A828B83E5824583602CA3A3A3A34E
:10339300A3A3E054186021E508241C1233D71206B6
:1033A300E71233D31206E7EE241812370F124E6FCB
:1033B300125C441208A7801579008E828F83A3A321
:1033C300A312569C124E6F125997121849022F6777
:1033D300E5082413F582E43509F5832274F7120313
:1033E300B574F712093BEAFEEBFF9013A3E0640305
:1033F300600DE064016008E0640960030234DD8A63
:10340300828B83A3E060030234AB7C007D007A02ED
:103413007B00120FCD125CE98A82125C86901394B2
:103423001255C879531216759013A3E06409600905
:103433009013A1125997121CCF8521828522837480
:10344300011251EC9013A37404F074011208FD7976
:103453004A12166F74011209057A997B131211B37C
:1034630090121CE0640B70057406F080057900125D
:1034730034E29013941256A27A037B00120FCD907C
:1034830013971256A27A047B00120FCD90138EE08D
:10349300A2E35004D2F08002C2F01251D990156613
:1034A300120B23121B01802FFC7D007A037B101269
:1034B3000FCD90121CE0640B7003740AF090130D8F
:1034C300E4F0FA7B40124FC98E828F83A3E0F91296
:1034D30034E29013A3E4F0121B43740902407E907C
:1034E30013A112599B1217D722C082C083901327AE
:1034F300125B2770179013A3E024FB600514600789
:10350300800A90132D801F90132F801AE8496007BB
:103513001233186401700C8A828B83A3E0F91217AB
:10352300CB800E90141D125B2760061251D5122119
:1035330036024D20125C8C9013A1E06822125C8C41
:10354300E8FAE9FB2274F51203B574D812093B8A31
:10355300088B098A828B83A3A3A3A3A3A3A3A3E0BA
:10356300C3940F50030236F98A828B83A3A3A31259
:103573005CA474151209058A828B83A3A3A3A3A356
:10358300A3A3A31236FEFAA3E0FB121B4F7415127A
:103593000B3AE0702E850882850983A3A3A3A3A316
:1035A300A3A3A3E0C3940B401A8E828F83A3A3A388
:1035B300A3A3A3A3A3E064027009EE240B1248891A
:1035C300F460030236F97417120B3AE060076402E1
:1035D30060030236F99013A3E06402601CE0640602
:1035E3006017901327125B2770030236F912331802
:1035F300640160030236F98025901327125B27705C
:103603001D75080078081208987808120898EE24A7
:103613001012370F8E828F831237281208A78E82DB
:103623008F831262FC123CB4125C887402120B3A50
:1036330012547D122B29C0E07404120B3AD0E0120D
:103643003731F508A3E0F509740F7808120AD4742A
:1036530005120B3AE508F07419120B3AE0C0E07456
:1036630006120B3AD0E0F0741B120B3AE0C0E07480
:1036730007120B3AD0E0F07416120B3AE0C0E07474
:1036830009120B3AD0E0F07417120B3AE0C0E07461
:1036930008120B3AD0E0F0EE2410124889C0E0740F
:1036A3000A120B3AD0E0F0741A120B3AE0C0E0743D
:1036B3000B120B3AD0E0F07427120B3AE0C0E0741F
:1036C3000C120B3AD0E0F0741C120B3AA982AA83B5
:1036D30089088A09750A0078081208907C087D0019
:1036E3007410120B3AAA82AB831248801208A7AA5D
:1036F30021AB221217D174280241DCE0F98A828BB4
:1037030083A3A3A3A3A3A3A3A3A3E022F582E43FDC
:10371300F583E0F98E828F83A3A3A3A3A3A3A3A31B
:10372300A31263272212599B121C0F740222F0EE7C
:10373300124E74E02274F21203B574F812093B8A34
:103743000A8B0B8C0C8D0D8908908EF3AC21AD2266
:1037530074081207B8C200AC0AAD0BAA21AB22123F
:1037630059187002D2009013EF8013AC0AAD0BEE20
:10377300240BFAE43FFB125918701B12436B123FE0
:10378300FE601EA20040E48E828F83E0650C70040D
:10379300A3E0650D70E58E828F83A3A3E0650870B7
:1037A300DAEEFAEFFB7408023CC1C082C0839013C7
:1037B300EF024D1DC082C0839013EFE4F0A3023AE1
:1037C3001374F71203B59013EF126215800FEA24F6
:1037D30014F582E4125CA11210B1EEFAEFFBEA4B8E
:1037E30070EC9013EFE4F0A3F002408174F2120343
:1037F300B58A0C8B0DEDFF890B8A828B83E08C825B
:103803008D83F0A3A882A9838A828B831238B8128E
:103813003E2FE0C454F0FA88828983E04AF0EC2416
:1038230002F8E43FF9850C828B83A3A31238B81204
:1038330038CBE0333354FC1238BFE033333354F81E
:103843001238BFA3E0A2E0E4331313FA888289831A
:10385300E04AF0EC2403FE50010FE50C2407F508C1
:10386300E4350DF509750A0078081208907C087D87
:1038730000EEFAEF12487F1208A7EE2408FE50016B
:103883000FE50C240FF508E4350DF5097808120847
:10389300907C037D00EEFAEF12487F1208A7E50B38
:1038A300C3940F400DE50C2412F582E4350D124E3E
:1038B30083F0023CC4A3E08882898322FA88828948
:1038C30083E04A1238CBA322F0850C828B83A3A317
:1038D300A3A32274F21203B5EBFF8C0C8D0D8A8225
:1038E300F583E08C828D831262E6A3A882A983E02C
:1038F300124CC8123CAAC4124CC2F0EA1262F01273
:103903004CCF123CA8A2E2E4338C828D83123CA7F5
:10391300131313541F124CC8A3123CA7A2E7E4339A
:103923008C828D83A3A3A3A3A3A3F0EA2403FE5055
:10393300010FF5088F09750A0078081208907C08B2
:103943007D00E50C240712487B1208A7EE2408FE2D
:1039530050010FF5088F0978081208907C037D0049
:10396300E50C240F12487B1208A78E828F83A3A332
:10397300A3E0C0E012630CD0E0F0023CC474F61282
:1039830003B5EAFEEBFF8A82F583A385820885836C
:1039930009E0F91217EF850882850983E064EB607B
:1039A3001E8E828F83A3E064E160148E828F83A3D3
:1039B300E064F1600A8E828F83A3E0641A70078E3D
:1039C300828F83A3E4F0901566120B23121B0175FB
:1039D300080178081208988E828F83A3E0F508788F
:1039E3000812089879009013A11256A29013971207
:1039F30037281208A7121B61025090C082C083E9C6
:103A03009014017003E4800274018004EAF0A3EBD4
:103A1300F0024D2012599B12168D2274F61203B533
:103A2300901401E0701B7C0079017A007B00121B6B
:103A330091EA4B600C8A828B83125B276003121A14
:103A4300F5025090C082C083123EDE401079FF120F
:103A53001B8BE9F8902715E493C3985004790180F0
:103A6300027900024D2074F21203B58A0A8B0B8986
:103A730009C2008A828B83A3A3A3A3A3A3A3A3E066
:103A8300F9121B978A0C8B0DAE0CAF0D750801EA6A
:103A93004F6003023B4A850A82850B8312569C853D
:103AA3000A82850B83A3A3A3A3A3A3A3123C891216
:103AB3001B7F8A0C8B0DAE0CAF0DEA4F7003023CDB
:103AC300568A828B83A3A3A3A3E4F0A3F0E50A247D
:103AD3000CFAE4350BFB8A82F583E0C0E0123C5D0F
:103AE300D0E0F0E50A240D123C7D240D1255C212DC
:103AF3001C75124383125AE3E50A2411123C7D24F8
:103B0300111255C2E50A2413125CB3C0E0124375C7
:103B1300D0E0F0D200EE2406F8E43FF9123C701234
:103B23003CAB54046003023BBC901578E0F50A7586
:103B33000B007407780A1209CC8E828F83A3A3A388
:103B4300A3A3A3123C67F08E828F83A3A3A3A3A393
:103B5300A3E0F50AA3E0F50B7407780A120AD4E58B
:103B63000A5407FCE50960618E828F83A3A3A3A394
:103B7300A3A3A3A3A374021241D6123F73600B90B5
:103B8300138F124909A3A31255C8EC7003023C2DED
:103B9300EE2406F8E43FF9E8FAE9123C70F0EC246D
:103BA300FFF50AE434FFF50B7407780A1209CC8A8F
:103BB300828983123C67F080718E828F83A3A3A3D3
:103BC300A3A3A3E04480023B49EC70057508008081
:103BD300598E828F83A3A3A3A3A3A3E05420600CD5
:103BE300121015EA547F7900245F80198E828F8327
:103BF300A3A3A3A3A3A3E05410601A121015EA54BD
:103C03000F7900240A5001098E828F83A3A3A3A3F3
:103C1300F0A3E9800D8E828F83A3A3A3A37401F085
:103C2300A3E4123CB47404123EF4A20050288E8222
:103C33008F83A3A3A3A31259A1F9EEFAEFFB121BDF
:103C430085E96012125B206003123C96EEFAEFFBEB
:103C53001210B1750800A9088067EE240CF582E400
:103C63003FF58322E0450AF0A3E0450B228882F565
:103C730083E0547FF0A3E054FC22F582E4350BF596
:103C830083125C8CEE22A3E0F9850A82850B8312F2
:103C9300599B22123C9D1240F322EE240FF582E43D
:103CA3003FF58322A3A3A3A3123CAF22125CCFE070
:103CB30022123CB8221241CCA3A3A32274031208FC
:103CC300A77F060205DD74F41203B574F712093BEE
:103CD3007E00121B97EA4B7003023D7C8A828B8322
:103CE300A3A3A3A3A3A3A3A3A3E064066003023D2A
:103CF3007C8A828B83A3A3A3A3A3A3A3E0FF8A82CB
:103D03008B831262AEE0C0E07408120B3AD0E0126B
:103D130040A41255B51255C8121BA9EF5408605799
:103D23008521828522831256A27A007B00121B7999
:103D3300EA4B70431263177C007D007A007B00809E
:103D4300228E828F83124BAEF47003A3E0F46027BC
:103D53009013A1123D81124086601C7C007D00EE11
:103D6300FAEFFB121B798A0A8B0BAE0AAF0BEE4FED
:103D730070CF79001216A57E01EEF9022F62123D73
:103D83008522E0FCA3E0FD8E828F8322C082C08364
:103D93008A828B83E5824583700990140680068AA4
:103DA300828B83A3A3123FA760208A828B83A3A362
:103DB300A3A3A3A3A3E0540860E5EC4D6010123F56
:103DC300AD7003A3E06D70D780047A007B00024DD1
:103DD3002074F21203B58A088B09890AECFEEDFF01
:103DE3007A147B001210ABEA4B60378A828B83A371
:103DF300A3A3A3A3A3A3A3A3E4123E45E50A1240EE
:103E030090EEF0A3EF123E351240AB123E3C8A8295
:103E13008B8312632F123E28125A1EA3123E2FF0D9
:103E2300A3F0023CC4EA240FF582E4221262EAA35F
:103E3300A322124096E4F0A322A3F01262A7125A1F
:103E43001E22123E492212409AA3A3A3A32274F571
:103E53001203B5EAFEEBFF890A8C088D09EA4F606D
:103E63007574016970127901121B8BE9F890271799
:103E7300E493C3985015800A7404697009123EDEF6
:103E8300500979118052740269704B8E828F83A31B
:103E9300A3A3A3A3A3A3A3A3E50A123EED1245C3C1
:103EA300125BA8A3E4F0A3F0901406125B2760183A
:103EB3008003125C8888828983A3A3123FA7888228
:103EC3008983A3A370EC8003901406EEF0A3EF1292
:103ED3003EF47900800279C10241DF7904121B8B21
:103EE300E9F8902716E493C39822125BACA3A3A32B
:103EF30022F07A207B009013EEE0F912105D22C0CD
:103F030082C083E9F87900901406801D8A828B832E
:103F1300A3A3A3A3A3A3A3A3A3E068600574FF685B
:103F23007001098A828B83A3A3123FA770DE024D1F
:103F33002074F71203B5EA4B700590140680068AC5
:103F4300828B83A3A3123FA7601F8A828B83A3A3C1
:103F5300A3A3A3A3A3A3A3E06970E4EC600F8A82E5
:103F63008B83123F7370D880047A007B00024081F8
:103F73001262C7E0540422C082C0839014068006F4
:103F83008A828B83A3A3123FA760128A828B83A3A7
:103F9300A3A3A3A3A3A3A3E06970E580047A007B92
:103FA30000024D2012599BEA4B228A828B83124BCB
:103FB300B26C2274F21203B58A0A8B0B8C0C8D0D32
:103FC300750800750900EA4B602A90140680068E76
:103FD300828F83A3A3123FFE601AAC0CAD0DEEFAE1
:103FE300EFFB850A82850B83122136E9640170DFBA
:103FF3008E088F09AA08AB09023CC4E0FEA3E0FFC8
:10400300EE4F2274F71203B5901406125C887C00FD
:104013007D00800DE8FCE9FD88828983A3A3125CFF
:1040230088E8496030EA687002EB6970E79014062B
:10403300125997E86A7002E96B88828983A3A37097
:1040430008125C889014068009125C888C828D8328
:10405300A3A31255C8802774F71203B5EAFEEBFF3A
:10406300EA4F6015121BA31240DF125B206003129C
:104073003C96EEFAEFFB1210B180031208A77F0102
:104083000205DD12599B121699E9641A2212409611
:10409300A3A32212409A22F08A828B83A3A3A3A311
:1040A300221262EA124BB222123E49A32274F61282
:1040B30003B5901406125CA48014125CC11240DF95
:1040C300123C96EEFAEFFB1210B1AE08AF09EE4FB9
:1040D30070E8901406E4F0A3F00250908E828F8370
:1040E30012629BF5831240F38E828F831240F32278
:1040F300E0FAA3E0FB1210B122C082C083EAFCEB1A
:10410300FDEA4D6017EA24FBF582EB34FF125B25D1
:104113007007124151E0F460071210217905802BDA
:104123009013EEE0C0E0124151D0E0F090270EE48E
:1041330093F97A087B14121057E96401700B7A0023
:104143007B20124160790080027904024D20EA2429
:10415300FFF582EB34FFF583227A207B009013EE88
:10416300E0F912105D2274F41203B5A2AFE433F543
:1041730008C2AF901408123FFE6038EE24FBF582AC
:10418300EF34FF125B257A007B209013EE6005125B
:1041930041638005E0F9121063E4F50AF50B780A30
:1041A300120894EEFCEFFD7A087B1412105174028E
:1041B3001208A7E508A2E092AFEEFAEFFB022F6721
:1041C3001241C8E0221241CC221241D6A3A3A3A3D9
:1041D300A3A322F08E828F83221208A77F030205F6
:1041E300DD74F21203B574FA12093BEAFEEBFF75B4
:1041F30008FE7509FF121B67E96005791102436622
:10420300124886603C901592E0C43354E0F8E033E2
:104213003354FC48C0E0EE1252953FF583D0E012D0
:104223005CE3FAA3E0FB79FF12193FEA4B601275D6
:1042330008FFEE240F1248894404F0124886D2E0A6
:10424300F08E828F8312439F6006EE2412125CFB72
:10425300EE2413124889700D902719E493C0E012DD
:104263004375D0E0F08E828F83E0A2E750045403BD
:104273008019EE24141248897012901380E0C0E074
:1042830012436BD0E0F0901380E004F0EE2411129F
:1042930048896401701690157CE0600D90138BE0E3
:1042A300700A8E828F83E07003125CF88E828F8394
:1042B300E064017013EE240B124BA864027009EE44
:1042C300240F1248894440F0AC21AD22EEFAEFFBF3
:1042D300121BD38A0A8B0B74FE6508700374FFF4F8
:1042E3007003125CC1EA4B60768E828F83E0C0E07C
:1042F3007401120B3AD0E0F07404120B3AEEF0A3FF
:10430300EFF0EE241E125C827402120B3A1255C8AF
:1043130074011208F5880C890D780C120894EE24A8
:10432300201243881208981243831206E7EE240EE4
:104333001243881208989013941206E77408120B1C
:104343003AE0F9AC08AD09121BCD74081208A7E9CD
:10435300FE74106E700BAA0AAB0B1210B180027EB2
:1043630010EEF97406023CC1EE2414F582E43FF525
:104373008322EE12437A222413F582E43FF583224B
:10438300EE123C9E22F582E43FF583E0F50C780CB7
:10439300228E828F83A3A3A3A3A3A3A3A3A31243C6
:1043A300A522E0FAA3E0FB121C6FE922C082C083BE
:1043B30074D712093B908DD9740312090574261220
:1043C30007B88A828B83A3A3A3A3125C88740E12FB
:1043D3000B3A125B2D125C88740C120B3A1244A830
:1043E300240D124498C0E0741A120B3AD0E0F01274
:1043F3005A24125C867420120B3A1244A824151214
:104403004498C0E07408120B3AD0E0F0EA241CF59B
:1044130082E43B125C867412120B3A1244A82411F4
:10442300124498C0E07409120B3AD0E0F0EA241267
:10443300124498C0E07407120B3AD0E0F0EA241E4D
:10444300F582E43B125C867424120B3A1244A824CE
:1044530020124498C0E07426120B3AD0E01244A014
:1044630074FFF07401120B3A74FFF07402120B3AEA
:1044730074FFF0908FA51206E37404120905740704
:104483001208FD1217C574041208A77900742912C3
:1044930008A7024D20F582E43BF583E022F0852155
:1044A3008285228322E8F0A3E9F0EA2274F412035E
:1044B300B574EC12093B8A0A8B0B8C088D09E9FF52
:1044C3007E107A217B001210AB852182852283EA3C
:1044D300F0A3EB125B37E84970030245BC7C217DF6
:1044E300007900852182852283E0FA121009901356
:1044F300A11259978521828522831256A62409F594
:1045030082E438F583125AE37420120B3A125C8862
:104513007411120B3AE8124C17125AE938F58374E6
:1045230002124C1A1262B57402124C041245C312E1
:104533004C1A126292EFF07422120B3A124BC5F925
:10454300A3E0C9125F8C39F583E81248DAA3E0C906
:10455300241FF582E4391245CA7423120B3A125907
:10456300977406120B3A125AE37408120B3AE8F0E6
:104573007426120B3A125ABDC082C083740C120BFC
:104583003AAC82AD83D083D08274051207B8742508
:10459300120B3AE0C0E07413120B3AD0E0F079004A
:1045A300AA21AB22121B6DE9640170047E0080090D
:1045B300852182852283123C99EEF97414022F64BB
:1045C300E508F0A3E50922F583E50AF0A3E50BF07E
:1045D3002274F01203B574FF12093BEAFEEBFF8C61
:1045E300088D098A82F583A37408F0EA2416124819
:1045F3008960088A828B83A37410F0EA2417124817
:104603008960098A828B83A3E02408F0EA12488731
:1046130060088A828B83A3E004F08A828B83A3A33E
:10462300A3A3A3A3E060198A828B83A3A3A3A3A359
:10463300A3A3E0C3332402F88A828B83A3E028F088
:10464300EA24111248916004740E8001E4F090157D
:104653008AE0640170168A828B83E06401600D90A6
:10466300130DE0600712487174018004124871E46D
:104673001248DA8A828B83A3E0F8EA122B292829CD
:104683008C828D83F0EA24111248896005124EB2A0
:1046930029F0850882850983E0C394754009750C68
:1046A30000750D00024868E0FA7B001210AB8A0C1B
:1046B3008B0DEA4B70030248688E828F83E0FA9079
:1046C30013911248D3740278081209CCEA4508FA08
:1046D300AB09EE24121248CD740678081209CCA84F
:1046E30008EA48FCEBFD12488660047801800278F2
:1046F30000EE2416FAE43FFBE4C8F9ED49FDEE248D
:1047030011124889F5088809740978081209CCED53
:104713004509FD8A828B831248D3740B78081209EA
:10472300CCED4509FDEE24171248CD740C78081220
:1047330009CCED4509FD8E828F83A3A3A3A3A3A375
:104743001248D3740A78081209CCED4509FDEE240A
:10475300231248CD740D78081209CCED4509F9EC04
:10476300850C82850D83F0E9A3F0EE24021248B094
:104773001248EFF0EE24041248B0A3A31248EFA3AB
:10478300A3F0EE24131248C0F0EE24141248C0A381
:10479300F0750B088A828B83E06015125B991256C1
:1047A300A2E50C2408FAE4350DFB1211B3750B10C6
:1047B300EE241712488960191257251256A2A80B26
:1047C300E50C28FAE4350DFB1211B37408250BF53B
:1047D3000B8E828F83A3A3A3A3A3A3E0604EEE2437
:1047E30007F50EE43FF50F850E82F583E0C0E01276
:1047F300489FD0E01248DFE0C0E0081248A1D0E0B3
:104803001248DFA3125B13120890850E82850F8373
:10481300E0124B79A80BE50C2812487B1208A785F8
:104823000E82850F83E0C333250BF50B1248866098
:1048330008C0E012489FD0E0F0124E6F125B1312D3
:104843000890122B28FC7D007403120B3A1248A81F
:10485300E0F8E50C28F8E4350DF9E82AFAE4391212
:10486300487F1208A7AA0CAB0D7401025AFCEA2474
:1048730023F582E43FF58322FAE4350DFB120FFDA5
:10488300740322EE2415F582E43FF583E022F582DA
:10489300E43FF583E085218285228322A80BE50C82
:1048A30028124B8C22E0FA8E828F83A322F8E43FF6
:1048B300F98882F583E0850C82850D8322F582E4F5
:1048C3003FF5831248F9A3A3A322F582E43FF583BE
:1048D300E0F508750900221262D8F922F0050B8E63
:1048E300828F83A3A3A3A3A3A3A3A322A3A3125C43
:1048F300CFA31248F922E0850C82850D83A3A3A3DD
:10490300227403022F64125C8C8E828F83A3A322F2
:1049130074F01203B574FD12093B125ADD740212CE
:104923000B3AE9F08C0C8D0D750B017C267D00791B
:1049330000AA0CAB0D1210097402120B3AE0C394D7
:10494300085003024B021248B8F0AC0CAD0D8521A0
:1049530082852283124BAEFA8521828522831251EE
:10496300D4124EABE96003750B0085218285228347
:10497300125ABD124BCFE0F9EA850C82850D83A351
:10498300A3A3A3A3A3A3A3A3F0A3E9124C04A3A3E8
:10499300124BCFA3A3E0F9E50C125B3CEA124C17D0
:1049A300125692C0E0E50C2411126310D0E0124CB1
:1049B3001A2407F582E438F583E0C0E012630CD0D3
:1049C300E0125AD07408124BFBA3E06026852182C3
:1049D300852283E02408F8A3E03400F9E50C2413CE
:1049E300F582E4350D1255C6850C82850D83A3E04F
:1049F3002408F0850C82850D83A3A3A3A3A3A3A3FB
:104A0300A3E0602A850C82850D83A385820E8583AE
:104A13000F124BBCF8A3E03400F9E50C12529535A4
:104A23000D1255C6850E82850F83E02408F0124BC4
:104A330080E4F0124B94E4F0A3125AD0A3A3A3A3EF
:104A4300E06011124BE0850C82850D83A3A3A3A321
:104A5300A3124C0CE50C124BA1E07003024AEE12B8
:104A63004BE0FA124B80EA124C0CF8852182852226
:104A730083E028FBA3E034008B82F583E0F8E50CA8
:104A8300241A126310E8124C0CE8C39AE50C505632
:104A9300124B9CF890270FE493C39850047E0C802C
:104AA30006E50C124B9CFE850C82850D83124BBBD5
:104AB300F508A3E03400F509750A00780812089098
:104AC300EE124B797AC57B081248801208A7124B65
:104AD3009474C5F0A37408F0EEC333F8850E828591
:104AE3000F83E0288004124BA1E4F0850C82850D2E
:104AF30083A3E0F8850C82850D83E0C39850047985
:104B0300008070124BBBFAA3E03400FBE50C125C8F
:104B1300F2126313125AE3850C82850D83E0C39866
:104B2300C0E0E50C2417126310D0E0124BFBE060E9
:104B330040E50C2417FEE4350DFF8E82F583E02457
:104B4300F2F0E50C241DF8E4350DF98882F583E0D5
:104B5300240EFAA3E03400FB88828983125AE3907F
:104B6300138CE0F9121AC5E9F88E828F83E0C3989B
:104B7300F0A90B025AFA25E0FCE433FD22E50C12FE
:104B83004B86222419124B8C22F582E4350DF583D2
:104B930022E50C241B124B8C22124B86E022125A64
:104BA300CA124B8F22F582E43FF583124BB22212D5
:104BB3005C91F5838882E022A3124BC022124BC57D
:104BC3002822E0F8852182852283E022A3A3E0FA4C
:104BD300852182852283125AC3A3A3A322850C8233
:104BE300850D83A385820E85830F124BC0FAA3E044
:104BF30034008A82F583E022125AD4A3A3A3A3A389
:104C030022124C1FF583888222F0850E82850F8342
:104C1300E004F022F0A3E9124C1FC8221262DCF870
:104C2300A3E02274F41203B58A088B09EA124CCF6D
:104C3300A3A3F0EA1313543F124CC2A3F0EAC41324
:104C430013124CCF124CD97409780A120AD4124C9D
:104C5300B9A3A3A3A3A3A3F0EB124CBB124CD87428
:104C63000A780A120AD4E50A5401C0E0EC125ACABF
:104C73003DF583D0E0124CDD740B780A120AD4128E
:104C83004CB9124CD6740C780A120AD4124CB9A33C
:104C9300124CD6740D780A120AD4E50A5401C0E006
:104CA300EC2424F582E43DF583D0E0F0740E78081B
:104CB300120AD4022F53E50A54018C828D832212E7
:104CC3004CC8A3A322540F8C828D832254038C825D
:104CD3008D8322A3A3A3A3A3A3A3F08A0A8B0B22EE
:104CE300C082C08379008A828B83A3A3A3A3A3A3D7
:104CF300E090138B600EE0701F8A828B83A3A3E086
:104D030070168012E0601112598A901394E06A7051
:104D130003A3E06B600279018003125997D083D01B
:104D23008202083C74F21203B58A0A8B0B890CECDD
:104D3300FEEDFF8A828B83E0FA124EAB850A8285F1
:104D43000B83A3A3124E9FE0F9EA8E828F83A3A362
:104D5300A3A3A3A3A3A3A3124EC4124E9FA3A3E092
:104D6300F9124E6FEA124EC4A3A3E0C0E0EE241181
:104D7300F582E43FF583D0E0124ECBA3A3A3E0C0BA
:104D8300E0EE2412F582E43FF583D0E0125BA874D1
:104D930008123EEDA3A3A3E06017E50A2408F8E494
:104DA300350BF9124375E8F0A3E9125BA8E0240878
:104DB300F08E828F83A3A3A3A3A3A3A3A3E060186E
:104DC3008E828F83A3124E8EEE24151255C2850850
:104DD30082850983E02408F08E828F83A3A3A3A393
:104DE300A3E060248E828F83A3858208858309E0F4
:104DF300F8E50A28F582E4350B124E83A3A3F08568
:104E03000882850983E004F0EEFAEFFB121BE5E963
:104E1300F50D70498E828F83A3A3A3A3A3A3124E80
:104E23007DA37014E0F8E50A28FAE4350BFB124E73
:104E330065125AE3E50C801A124E8EE8240EF850E0
:104E43000109EE241D1255C2124EB2F9E50CC399A5
:104E530024F2C398C0E0EE12571CD0E0F0A90D0273
:104E63003CC4EE241DF582E43FF58322EE124E741A
:104E730022240BF582E43FF58322E08E828F832286
:104E8300F583E08E828F83A3A3A322858208858383
:104E930009E0F8E50A28F8E4350BF922E0FA850A77
:104EA30082850B83A3A3A322125D04121BDF22902E
:104EB300138CE0F9121AC5E9F8850882850983E0A5
:104EC30022F0A3E9124ECB22F0850A82850B83A33D
:104ED300A3A3A322C082C0837A147B1479E212169F
:104EE3006F7A147B14024D20C082C0839013940206
:104EF3004D1DC082C083901397024D1DC082C08395
:104F0300794A12166F024D2074F61203B590141CE1
:104F1300E0FE04F0EEF9121B97EA4B70F0EE60ED41
:104F2300F902509074F21203B5EAFEEBFF8C088D80
:104F330009890A121CD5740E120B3AE0F9740F1288
:104F43000B3AE0F8EA4B7012E8701BA90AAC08AD03
:104F530009EEFAEFFB121CF38065E86017E97006AF
:104F63008A828B83E4F07401687054E990141F7093
:104F730024E4801EE97048EA2402124498A80A280F
:104F8300F8E4340013E813F070358A828B83A3A30B
:104F93007401F0802AE004F0901579E0F890141F72
:104FA300E0C398401AE4F0901397E06E7003A3E017
:104FB3006F700CEEFAEFFB79011217E9124FC5027D
:104FC3003CC47A017B009013EEE0F9121183227442
:104FD300F41203B58A088B098C0A8D0B908F89789C
:104FE3000812095170077A0112415E801E901566FE
:104FF3007808120AC5EA4B4C4D600D780812088CEC
:10500300122D021208A78003124FC5022F67C08218
:10501300C08390156A023A0FC082C08390156C0258
:105023003A0F74F61203B57E00750880750913787C
:10503300081208947C6E7D007A217B001211237480
:10504300021208A7E9640A70027E01121747E96495
:105053000A7004EED2E1FE900436125B27600F1251
:1050630051D5122136E9640A7004EED2E3FE121917
:1050730051E9640A7004EED2E4FE1215F1E9640A00
:105083007004EED2E5FEEEF980031208A77F020258
:1050930005DD74F61203B5120FC775088075091381
:1050A300780812089475086E750900780812089438
:1050B3001250D21208A712174D900438125B2760C2
:1050C300061251D512213612195712160380BE7CCF
:1050D300007D007A217B0012112F74042274F612D2
:1050E30003B574FF12093B7E0075088075091378B8
:1050F300081208947C6E7D007A217B0012112374C0
:10510300021208A7E960030251AC780812089475EB
:10511300086E8E0978081208947C007D007A217B42
:105123000012113574041208A7E9707D901394E0FE
:1051330064FE7003A3E0F460707E019013A3E06447
:10514300086005E06404705C852182852283EE1289
:1051530051EC7AAB7B1379431216757AA87B1379DA
:10516300471216757A997B13794A1251C77AA17B34
:105173001379501216757A947B1379531216757A34
:10518300A97B1379541216757A967B1379E112165B
:105193007590138EE0A2E35004D2F08002C2F012A5
:1051A30051D98005120FC77E0012173B90043A12A3
:1051B3005B2760061251D5122136121963EEF9747A
:1051C3000102508D1216757A977B13794B1216755F
:1051D30022A3125AC422A2F0E433852182852283BA
:1051E30012524B79521216752212524B79421216F1
:1051F300752274F61203B5E9FEA2E0501C7508800F
:10520300750913780812089475086E7509007808F3
:105213001208941250D21208A7EEA2E350031217F9
:1052230041EEA2E2500E90043C125B27600612513D
:10523300D5122136025090121B497AF17B1379451E
:105243001216752212524B22F0AA21AB222274F7B6
:105253001203B574ED12093BE9FE9013EDF0AC2196
:10526300AD2212527D7412120B3AEE12528AAA2107
:10527300AB2212523A741302407E9015A8E0F97AD9
:10528300F17B13121B4F22F09015A8E0F97CF17DFE
:1052930013222415F582E4221262A83509F583222C
:1052A300EFFB9013EEE0F912102722EE24161252B0
:1052B300B522F582E43FF5837401F0221262A73F21
:1052C300F5831252C922125C91F98882F583227404
:1052D300F41203B58A088B097A007B04124FC912B2
:1052E30053749013A37409F012590C1233D3125947
:1052F30097125918640170677A0F7B0012101B8A8A
:105303000A8B0BAF0BEA4F60568A828B837402F0D1
:10531300E508125CF23509125D10FC88828983A3CB
:10532300A3E0FBEC8A828F83A3A3125AE4888289C9
:1053330083A3A3A3E08A828F83125365FAA3E0FBBE
:10534300794A121675850882850983A3A3A3A3A3AB
:10535300A3E0700690121C7405F0AA0A1252A3026D
:105363002F67A3F0E5082415F582E43509F583E0FA
:1053730022901329125C8C90156CE8F0A3E9F0904D
:10538300132B125C8C90156AE8F0A3E9F02274F4F5
:105393001203B574FD12093B8A088B097401120BC1
:1053A3003A7402125BC9700302546C1252BF740444
:1053B300F0A3E4125489E06401700888828983A30E
:1053C3007420F0850882850983A3A3A3A3A3E064C3
:1053D30001700988828983A3E0D2E6F0850882857B
:1053E3000983A3A3A3A3A3A3E06401700A8882890A
:1053F30083A3E0D2E78006EA124376740112548451
:10540300E064017020850882850983A3A3125B27CA
:105413006004EA1252AF850882850983A3A3125C54
:1054230088EA1255C0850882850983A3A3A3A3A391
:10543300A3A3E064017009EA240F1252B1A3E4F0BC
:105443008508828509831243A16009EE240F12485F
:10545300894404F012549585088285098312547196
:1054630012547B125CD5F980027910024904E0F8EA
:10547300A3E0F98E828F8322A3A3E8F0A3E9F0EEE1
:1054830022125489A322F0850882850983A3A3A34A
:10549300A322EE12570A2274F51203B574F312090C
:1054A3003B890AEAFEEBFF7508007509007C0D7D58
:1054B300007900AA21AB22121009124E651256AFD1
:1054C300741F58600C7AD37B0012147D7900025547
:1054D300ABE8A2E55008740C120B3A7401F0E8A291
:1054E300E75008740B120B3A7401F0E8A2E6740A51
:1054F3005008120B3A7401F08008120B3AE0640171
:1055030070138E828F83A3A3A3A3A3A3A3E0603608
:10551300EE241380128E828F83A3A3A3A3A3A3A33A
:10552300A3E06022EE2415F582E43FF583125CC705
:10553300E50845096010AC08AD097402120B3AAADC
:1055430082AB831211B3124E6F1255B01255C87449
:105553000A120B3AE06401704690159DE0604764BF
:10556300017006901586E0603DEE240B125C82907C
:105573001397E0687003A3E069702B1243947026BD
:10558300E50845096019121BF18A088B09AC08ADBF
:10559300097402120B3AAA82AB831259186007AA44
:1055A30021AB221217E3A90A740D0241DC1255B490
:1055B30022E0F8A3E0F9852182852283222418F5CD
:1055C30082E43FF583E8F0A3E9F02274F71203B510
:1055D30074CD12093BEAFEEBFF8A82F5831256A6CD
:1055E300125692A2E0400302568D8A828B83125296
:1055F300C5A3A3A3A3A3A3E054FE125F99740D1242
:105603000905EA241E124498125C61125997121B71
:10561300EBE97076742A120B3A1256B6706C7C0D55
:105623007D007900AA21AB221210097416120B3ADD
:105633001255B01255C8742A120B3A1256AFA2E58E
:105643005008740B120B3A7401F0E8A2E750087487
:105653000A120B3A7401F0E8A2E6500474208002A7
:105663007422120B3A1256A27402120B3AAA82AB9C
:10567300831211B38E828F83A3A3E0C0E0740C1254
:105683000B3AD0E01252471217DD743302407E24E6
:1056930006F582E438F583E022A3A3A3A3A3A31210
:1056A3006327221256AA22125C91C822125AC1A35E
:1056B300E0F822124BB2640422E9F879007404681A
:1056C300600A740A6860057403687002790102084D
:1056D3003C74F61203B58A828B837424F0A3A374FB
:1056E30001F012176B8A088B09AE08AF09EA4F6005
:1056F300078A828B83125702EEFAEFFB02509074F3
:1057030001F0EA12570A2212571C7401F0121BF11E
:10571300125725EAF0A3EBF0222417F582E43FF5B4
:105723008322EE241AF582E43FF58322C082C083EC
:1057330090140A7401F0E9A2E350037403F0E9A2A0
:10574300E15004E0D2E2F0024D2074F61203B57981
:10575300007C008A088B097808120623F8FF078269
:1057630057805780578057805778577C5782577494
:10577300577C01800A7C0480067C0280027C0890AE
:10578300140AE05C600479028005EC60027901028E
:10579300509074F61203B58A828B83E07014A3A32E
:1057A300A3125B27600C8A828B831259941219B15E
:1057B30080047A007B00025090C082C0837800E8A6
:1057C30075F003A4FCA9F0E9FD12584B6A7003A31A
:1057D300E06B7018902707E493C0E0740B2CF582FC
:1057E300741439F583D0E0F079C5805908E8C3947F
:1057F3000340CC7800E875F003A4FCADF012584BDD
:1058030064FE7003A3E0F4601E08E8C3940340E55C
:105813007800E875F003A4FCADF0740B2CF58274EA
:10582300143DF583E07015E8125D45125AE39027A5
:1058330007E49388828983F07900800908E8C39498
:105843000340CF79C7024D20740C2CF58274143DAC
:10585300F583E02274F41203B574F312093BEAFEF4
:10586300EBFF8C088D09750A12EA4F700579000267
:105873005907901394E06E7003A3E06F70141259EC
:105883000CAA08AB091259187005750A0180037533
:105893000A00852182852283E4F004120B3AEEF09C
:1058A300A3EF125247121723E960297403120B3A2C
:1058B300AA82AB831216FFE964017018750A01749A
:1058C30003120B3AAC82AD83AA08AB0912591860D4
:1058D30003750A00AC08AD09EEFAEFFB121CDBE915
:1058E300F8740A687005750A01801774A06870124D
:1058F300AC08AD09EEFAEFFB121CE7EEFAEFFB1270
:105903001CF9A90A740D022F64121BF18A0A8B0B6E
:10591300AC0AAD0B221211ADE92274F71203B5EAFA
:10592300FEEBFF8A82F583A3A3A3A3A3A3A3A3E010
:105933006019EA2415122F57124E70125997121C30
:1059430081E964017005124E6F802D8E828F83A3CF
:10595300A3A3A3A3A3A3E060291243751259A1FA39
:10596300A3E0FB121C81E9640170178E828F83A36D
:10597300A3A3A3A3A3A3A3A3125997121C7B7901E7
:10598300800279000240818A828B83A3A3A3A3A30D
:10599300A3A3A3A312599B22E0FAA3E0FB22123D87
:1059A30085A3A3A3A3A3A3A3A3A3E02274F2120337
:1059B300B574FD12093B8A088B09ECFEEDFF890AD9
:1059C300750B017401120B3A7404125CDD604474AC
:1059D30011120B3AE06015125BBFE4125CAA8A82D3
:1059E3008B83E0D2E7F0EA2414125A1B125A2412D2
:1059F30052C37403F0A3E50AF0EE88828983A3A35C
:105A0300F0EF88828983A3A31262E512632D125CEF
:105A1300D8F50BA90B023CBFF582E43BF583E4F018
:105A2300221262A73B2274F41203B5EAFEEBFF894C
:105A330008EA124E66125ABDA3E0FAEE2417124882
:105A430089640460097AD37B0012147D8063EA12AF
:105A5300076C01000E605A005D5A750800124E650E
:105A6300A3E0F9EE2409F50AE43FF50B8882898364
:105A7300A3A3E0FC88828983A3A3125AEDF9850AC4
:105A830082850B831259971217FB850A82850B8334
:105A93001243A1601CEE2411124889C394024011E1
:105AA300124E6F125C797003A3E0696004A9088049
:105AB300027900022F678E828F83125AC122E0F887
:105AC300A3E0F5838882222418F582E422125AD4B3
:105AD30022F0850C82850D83A32285218285228372
:105AE300EAF0A3EBF0221262A822A3E0F8E4C8F9DB
:105AF300EC28E439FDEA2274031208A77F080205A3
:105B0300DD7402025AFCEE240DF582E43FF5832294
:105B1300E0F508A3E0F509750A00780822EE123EC5
:105B2300293FF583125C8CE84922E8F0A3E912626D
:105B3300EAA3A322124C1FF9221262A8124B8F224E
