:020000040000FA
:06000000020AB502020A2B
:03002B0002085474
:030053000201396E
:03006B000206A8E2
:1000830002019B010100F0FF0700080000FFFF00D1
:10009300000504000000030001FF800000002801A8
:1000A30000000020FD000206FFFF1E0101102020BA
:1000B3002020202020202020202020202020010874
:1000C300040100010002D88F0119900104000019F6
:1000D3001200000010270000FFFF6A1201881300BE
:1000E300001027000064006400B801A0BB0D00A04D
:1000F300BB0D0002FF02070401051E02051E020AD2
:100103000A010108080103B80B02803E0102FEFF49
:10011300E8030A050001FFFF020A011401E00503D9
:100123000101FF0FB624000000008A230000000035
:10013300FF000000FF00C0E074F1120489A2AFE4E5
:1001430033F509D2AF85A708AFA1EF5508FE7410A8
:100153005E6006120D5175A1EF74085E6008120D02
:100163005775A1F78024EFA2E092F0E508A2E082A0
:10017300F05017906198E0F8900473E0C398A2D20E
:1001830065D0335002E8F075A1FE752300E509A29E
:10019300E092AF7F020204E8C0E074F2120489A285
:1001A300AFE433FED2AF9061A4E0F8759B00E59114
:1001B30058540860087591F7120DA58023E59158EE
:1001C300541060087591EF120DAB8014E591A2E015
:1001D30092F0E8A2E082F05007E0C2E0F0120F01D3
:1001E3009061A3E0F8E5E9585404600E120ED77548
:1001F300E9FB906193E0A2E640F2752300EEA2E0F2
:1002030092AF7F010204E8C0E074F2120489A2AF46
:10021300E433FED2AF9061A5E0F8E5BF5854046023
:100223000675BFFB120F1980D1C3E498F8E499F95E
:1002330012026D8026C3E49AFAE49BFBE920E7E906
:1002430012026DE498F8E499F922C3E498F8E4996A
:10025300F912026DE498F8E499F9C3E49AFAE49B7D
:10026300FB22EB20E7CFE920E7E0B90010BB000851
:10027300E88AF084F8AAF022E4FBC8FA22EB7022A1
:100283007B10C833C8C933C9335007C39AC3DBF2E1
:1002930080069A50012ADBEAC833F4C8C933F4C98B
:1002A300FA2275F008E4C833C8C933C933C99AC9F7
:1002B3009B5004C92AC93BD5F0ECFBC833F4C8E40E
:1002C300C9FA22080808EAC0E0EBC0E086F0E7A418
:1002D300FA180986F0E7A42AFA180986F0E7A42A8F
:1002E300FA180986F0E7A42AFA1986F0E7A4FBE5D1
:1002F300F02AFA190886F0E7A42BFBE5F03AFA197D
:100303000886F0E7A42BFBE5F03AFA18180986F003
:10031300E7A4C5F02BFBE43AFA1908E7C5F0C6A435
:1003230026F6E5F03BFBE43AFA1886F0E7A4F6E597
:10033300F00826F6E43B08F6E43A08F6D0E0FBD0F2
:10034300E0FA22E4CFC0E0E4CEC0E0E4CDC0E0E4D4
:10035300CCC0E075F020E626F608E633F608E6336F
:10036300F608E633F6181818EC33FCED33FDEE33DC
:10037300FEEF33FFC3EC9709ED9709EE9709EF976B
:10038300191919400FFFEC97FC09ED97FD09EE973A
:10039300FE191906D5F0BFECF709EDF709EEF709D9
:1003A300EFF7191919D0E0FCD0E0FDD0E0FED0E062
:1003B300FF222521C582C0E0E52234FFC583C0E0CA
:1003C300E521C3958224F810AF0885832285822115
:1003D3008008858322858221D2AFCEF0A3E520F069
:1003E300A37808E608F0A3DEFAEFF0A3E58124FA88
:1003F300F8E608F0A3E608F0A3E608F0A30808E689
:1004030008F0A3E608F0A315811581D0E0FED0E043
:10041300F8158115811581E8C0E0EEC0E022120BCA
:100423002FB90003020473E4900401780979128060
:1004330002F0A3D8FCD9FA78239000867A01BA0097
:10044300028007E493A3F608DAF97A097B15900092
:100453008778B379018015E493A3AD82AE838A8252
:100463008B83F0A3AA82AB838D828E83D8E9D9E7ED
:100473007582417583BD740412083675820D7583C8
:10048300217400120836C0D02521C582C0E0E522C0
:1004930034FFC583C0E0E521C3958224F310AF0880
:1004A3008583228582218008858322858221D2AF9C
:1004B300C8F0A3E9F0A3EAF0A3EBF0A37908E709F6
:1004C300F0A3D8FAECF0A3EDF0A3EEF0A3EFF0A3C2
:1004D300D0E0F0A3D0E0F0A3D0E0F0A3E520F0A3B8
:1004E300E5F0F0A322852283852182E0C0E0A3E02A
:1004F300F9A3E0FAA3E0FBA37808E0F608A3DFFA88
:10050300E0FCA3E0FDA3E0FEA3E0FFA3E0C0E0A3C3
:10051300E0C0E0A3E0F5D0A3E0F520A3E0A3F5F06D
:1005230010AF0885832285822180088583228582F6
:1005330021D2AFD082D083D0E0F8D0E03275F01072
:100543008E248F2585822985832885218285228390
:10055300E0CEA3E0CF852982852883EBC9EAC8EDE5
:10056300CBECCAC3E833C8E933C9EA33CAEB33CBAC
:10057300C3EA9EF527EB9FF526B35004AB26AA27C3
:10058300EC33CCED33CDD5F0DAAE24AF2522D083D6
:10059300D082ECC0E0EDC0E0E493A3FCE493A3FDC0
:1005A300ED4C600D120669EC24FFFCED34FFFD8079
:1005B300EFE493A3FCE493A3FDED4C600D1207411C
:1005C300EC24FFFCED34FFFD80EFD0E0FDD0E0FC38
:1005D300E493A3C0E0E493C0E022852283852182D3
:1005E300E0A3FEE0A3F5207808E0A3F608DFFAE035
:1005F300A3FFE0A3C0E0E0A3C0E0E0A3C0E0E0A36A
:10060300C0E0E0A3C0E010AF08858221858322808B
:1006130008858221858322D2AFD083D08202083C11
:10062300D083D082E9C0E0E493A3C386F0C5F095FC
:10063300F0F908E493A386F0C5F095F0700BE4930A
:10064300A3C3994005E9048002A3E475F002A4253D
:1006530082F582E5F03583F583D0E0F9E493A3C016
:10066300E0E493C0E022C0E0C3E4939608740193EE
:100673009618400FE4936670080874019366187027
:10068300007019A3A3C3E49396087401939618A367
:10069300A3400DD0E0D0E0D0E00205CDA3A3A3A3F7
:1006A300A3A3D0E022C0E074F2120489A2AFE43322
:1006B300FED2AFE589A2E150159011DCE0700F7412
:1006C30001F07A207B009011BEE0F9121051758978
:1006D30000C2C5752300EEA2E092AF7F010204E8D9
:1006E3007404800474028000CCC0E0EDC0E0E52116
:1006F300C39CCCAD2250011D10AF068C218D2280EE
:10070300068C218D22D2AF1207B8D0E0FDD0E0FCD9
:100713002274028000CCC0E0EDC0E0E521C39CCC94
:10072300AD2250011D10AF068C218D2280068C2135
:100733008D22D2AF120796D0E0FDD0E0FC22C0E0BC
:10074300C0F088F0E493667008087401936618702B
:1007530000A8F0A3A3700BD0F0D0E0D0E0D0E0026B
:1007630005CDA3A3D0F0D0E022D083D082CCC0E0CB
:10077300E493A360061207D91470FAE493A3600606
:100783001209251470FAD0E0FCE493A3C0E0E493CB
:10079300C0E022CAC0E0E493A3C582CCC582C5836E
:1007A300CDC583F0A3C582CCC582C583CDC583DA0D
:1007B300E5D0E0CA22CAC0E0E0A3C582CCC582C5A9
:1007C30083CDC583F0A3C582CCC582C583CDC58344
:1007D300DAE6D0E0CA22C0E0E493A3D39C5010E44D
:1007E30093A3C39C400AD0E0D0E0D0E0020789A3E2
:1007F300A3A3D0E022C008C3E096F50808A3E096BF
:10080300420808A3E096420808A3E0964508700151
:10081300D3D008227009080808226016181818C6D1
:10082300C333C608C633C608C633C608C633C6D5DF
:10083300E0EA22C09FF59FE473D09F22D083D08249
:10084300C09FE493C0E0740193C0E0740293F59FEA
:1008530022C0E0C0D0E8C0E0A8A8D2AFC2C77523C9
:1008630000E8A2E792AFD0E0F8D0D0D0E032252163
:10087300F58210AF08F521400C15228008F52140C0
:10088300021522D2AF852283227404800A74038066
:1008930006740280027401C0E0F404120871D0E00F
:1008A300120AF22200C0D0252110AF08F521500C06
:1008B30005228008F52150020522D2AFD0D022BBF9
:1008C3000102E722C082C08389828A83BB0003E0DE
:1008D3008002E493D083D082226016080808C6C33E
:1008E30013C618C613C618C613C618C613C6D5E052
:1008F300EA222521F8E43522F9222521FAE43522DA
:10090300FB222521FCE43522FD22C3E0C696F6082E
:10091300A3E0C696F608A3E0C696F608A3E0C6963B
:10092300F622C0E0E493A36C7009D0E0D0E0D0E0FD
:10093300020789A3A3D0E022252110AF08F52140A7
:100943000C15228008F52140021522D2AF22E06661
:10095300701008A3E066700A08A3E066700408A399
:10096300E06622C3E09608A3E09608A3E09608A3F6
:10097300E096A2D265D03322E76670100809E766D5
:10098300700A0809E76670040809E76622C3E0965F
:10099300F008A3E096F008A3E096F008A3E096F031
:1009A30022C3E493960874019396087402939608FD
:1009B3007403939622C3E697F60809E697F60809A7
:1009C300E697F60809E697F622700422600D18C62A
:1009D300C333C608C633C6D5E0F41822E627F608A3
:1009E30009E637F60809E637F60809E637F622E698
:1009F30057F60809E657F60809E657F60809E657D1
:100A0300F622E056F608A3E056F608A3E056F608E9
:100A1300A3E056F622E056F008A3E056F008A3E060
:100A230056F008A3E056F022E647F60809E647F633
:100A33000809E647F60809E647F622E026F008A388
:100A4300E036F008A3E036F008A3E036F022E02613
:100A5300F608A3E036F608A3E036F608A3E036F678
:100A630022E4C396F608E496F608E496F608E496BC
:100A7300F622600D08C6A2E713C618C613C6D5E052
:100A8300F322C6F4C608C6F4C608C6F4C608C6F4FC
:100A9300C622C3E7960809E7960809E7960809E717
:100AA3009622C3E09608A3E09608A3E09608A3E085
:100AB300962275D00075813F7521017522040002CD
:100AC3000421E6F008A3E6F008A3E6F008A3E6F0A5
:100AD30022600C08C6C313C618C613C6D5E0F42299
:100AE300E0F608A3E0F608A3E0F608A3E0F622CABE
:100AF300C0E0E6F0A308DAFAD0E0FA22E8F0A3E9CE
:100B0300F0A3EAF0A3EBF022E0F8A3E0F9A3E0FA04
:100B1300A3E0FB22EAF0A3EBF0A3ECF0A3EDF022B9
:100B2300E0FAA3E0FBA3E0FCA3E0FD22E5C754F851
:100B33004401F5C77901222521F582E43522F583A5
:100B430022C2AF75D69F0200002212083FD8F803D5
:100B530012083F96F90312083F2DFB0312083F8446
:100B6300FB0312083FBCFB0312083FE6CE03120847
:100B73003F62CF0312083F95CF0312083FC3CF0351
:100B830012083FE0D10312083FFCD10312083F4192
:100B9300D20312083FC6D20312083F12D30312082E
:100BA3003FA4D30312083F7CD40312083FD8D403D5
:100BB30012083F36D50312083FB3D50312083FE9A5
:100BC300D50312083F34D60312083F5AD60312083E
:100BD3003FEAD60312083F81D70312083FCDD7035C
:100BE30012083FFED70312083F35D80312083FC44B
:100BF300D90312083F8EDA0312083F5EDB031208A3
:100C03003F01FA0112083F41FA0112083F94FA0129
:100C130012083FD0FA0112083F7FFB0112083FBFC1
:100C2300FC0112083F63FE0112083F71FE01120826
:100C33003F7FFE0112083FB6FE0112083F2BFF0162
:100C430012083F5AFF0112083F75FF0112083FA81F
:100C5300AE0412083F05AF0412083FD7FF03120882
:100C63003FEFFF0312083FF57F0012083FEBFF0140
:100C730012083FCECE0412083FDECE0412083FEA2C
:100C8300CE0412083F7BCF0412083FEFFE02120886
:100C93003F72FF0212083FD8FF0212083F8AD204B4
:100CA30012083FF1FF0212083FF4FF0212083FF758
:100CB300FF0212083FFAFF0212083F84D20412080F
:100CC3003F87D20412083FF87F0012083F62C40432
:100CD30012083F9AC40412083FDCC50412083F609F
:100CE300C60412083FB29D0412083FDE9D04120899
:100CF3003F22A00412083F62A00412083FA2A004EE
:100D030012083FB6A00412083FCFA00412083FC147
:100D1300A10412083F66A20412083F7AA204120833
:100D23003F44C80412083F68C80412083F81C8043E
:100D330012083FB3C80412083FE3C80412083F1067
:100D4300C90412083F1AC90412083F7CC9041208D7
:100D53003F8BC90412083F95C90412083FA2C90476
:100D630012083F9CBA0412083FBCBA0412083FFBA6
:100D7300BA0412083F16BB0412083F35BB0412081D
:100D83003F9BBB0412083FA4BB0412083F01BC04F1
:100D930012083F10BC0412083F34BC0412083FF58C
:100DA300BC0412083F02BD0412083F13BD0412081D
:100DB3003FF3D10412083F0BD20412083F37D20489
:100DC30012083F01990412083F5B9A0412083F6915
:100DD3009A0412083F7C9A0412083F919A0412085D
:100DE3003FA69A0412083FB99A0412083F2D9B04A8
:100DF30012083F929B0412083F1A9C0412083F9664
:100E03009C0412083F5A9D0412083F6A9D0412086D
:100E13003F799D0412083FDBD00412083FFFD00442
:100E230012083F27D10412083F4FD10412083FDBB9
:100E3300BF0412083F02C00412083F20C004120876
:100E43003F93C00412083FC9B70412083FE2B70436
:100E530012083FEEB70412083F02B80412083F20FD
:100E6300B80412083F2AB80412083F34B804120821
:100E73003F47B80412083FCDB80412083F42B904F3
:100E830012083F71B90412083FBFB90412083F0E9C
:100E9300BA0412083F29BA0412083F33BA041208ED
:100EA3003F44BA0412083F87BA0412083F94FF0173
:100EB30012083FDFFF0112083F00800412083F2A97
:100EC300800412083F47800412083F5A8004120826
:100ED3003F70800412083FCE800412083F0681044D
:100EE30012083FFA840412083F3F860412083F7237
:100EF300860412083FD5860412083F358804120879
:100F03003F5D880412083F72880412083F828804F8
:100F130012083FC6880412083F21890412083F3192
:100F2300890412083FECCA0412083F06CB041208D6
:100F33003F2ECB0412083F47CB0412083F6BCB0470
:100F430012083F89CB0412083FA0CB0412083FCEFE
:100F5300CB0412083FE9CB0412083F81CF041208E7
:100F63003FC5CF0412083F02FC0312083F12FC03E3
:100F730012083F17FD0312083F49FD0312083F798A
:100F8300FD0312083F9CFD0312083FB3FD03120843
:100F93003FEDFD0312083F52FE0312083F94FE0388
:100FA30012083FD3FE0312083F04FF0312083F2F2A
:100FB300FF0312083F63C60412083F75C6041208F4
:100FC3003F89C70412083F16C80412083F1CCD040A
:100FD30012083F52CD0412083F94CD0412083FA4D7
:100FE300CD0412083FB3CD0412083FF7CD04120815
:100FF3003FD4910412083F17920412083F7C9204D5
:1010030012083F99920412083F3B930412083F448D
:10101300930412083F89930412083FB29304120801
:101023003FBF930412083F3A940412083FC5940447
:1010330012083F0A950412083F55950412083FBA57
:10104300950412083FDD950412083F4E96041208DA
:101053003FA3960412083FDE960412083F13970439
:1010630012083F25970412083F37970412083F568A
:10107300970412083F5F970412083F12980412085E
:101083003F55980412083F93980412083FACC904D3
:1010930012083F2CC20412083F62C20412083FAA7E
:1010A300C20412083F03C40412083FF8AA0312083B
:1010B3003F11AC0312083F4BAC0312083FF9AD03D9
:1010C30012083F27AE0312083F8DB00312083FCD2D
:1010D300B00312083F71B20312083F01B3031208B1
:1010E3003F55B30312083FF7B30312083F39B40364
:1010F30012083F7BB40312083FD8B50312083F26FA
:10110300B70312083F5DB90312083F8BB9031208F6
:101113003FB2B90312083FBBB90312083F12BA0327
:1011230012083FADBA0312083FB5BD0312083F3C96
:10113300BE0312083F33D00412083F4BD0041208F9
:101143003F55D00412083FA9D00412083F87FF037C
:1011530012083F8EA20412083FA4A20412083F45BE
:10116300A30412083F84A30412083FA1A304120896
:101173003FD2A30412083F1FA40412083F52A40441
:1011830012083F8DA40412083F88A60412083FF0FA
:10119300A60412083F1CCC0412083F7BCC0412089F
:1011A3003FB9CC0412083FFACC0412083F01CE0425
:1011B30012083F12CE0412083F2ACE0412083F4DF4
:1011C300CE0412083F68CE0412083F9DCE041208D5
:1011D3003FB7CE0412083F00800212083F0C800282
:1011E30012083F6E800212083F78800212083F09FE
:1011F300810212083F45810212083FF5810212085D
:101203003F46820212083FDE820212083F578302E2
:1012130012083F20850212083F1A870212083F3046
:10122300880212083F73890212083F228A021208B9
:101233003FC88E0212083FBB8F0212083F5F900225
:1012430012083F84900212083F20910212083F3592
:10125300910212083F59910212083FC791021208E6
:101263003FE4910212083F0E920212083FAA930232
:1012730012083FCB930212083F71940212083FB940
:10128300940212083F0E950212083FAE950212080F
:101293003F12960212083F70960212083F0D970202
:1012A30012083F89970212083FBD970212083F2C8C
:1012B300980212083F5E990212083FDD9A02120853
:1012C3003F7A9B0212083FB99D0212083F309E02EB
:1012D30012083F5A9E0212083F54A00212083F37D9
:1012E300A30212083F64A40212083F6AAB04120867
:1012F3003F24AC0412083F8AAC0412083F32AD0409
:1013030012083F61890412083FF6890412083F223C
:101313008A0412083F1A8B0412083F8D8C041208AA
:101323003F6E8E0412083FF78E0412083FED8F04C0
:1013330012083F2E910412083F9B910412083F4963
:10134300960312083F78960312083FF0960312089B
:101353003FF3970312083F4F980312083FC69903C0
:1013630012083FE2990312083F349A0312083F77A9
:101373009A0312083F8A9A0312083FDC9A03120861
:101383003F979B0312083F119C0312083F3B9C03AA
:1013930012083F739C0312083FEF9D0312083FC0DE
:1013A3009E0312083FF79F0312083FC8A0031208C9
:1013B3003F52A10312083F93A10312083FADA103BB
:1013C30012083FF6A10312083F16A20312083FAC0E
:1013D300A20312083F3CA30312083F96A30312087B
:1013E3003FDAA30312083F6BA60312083F8EA7033D
:1013F30012083FCAA70312083FBCA80312083FDC28
:10140300A80312083FDFA80312083FE9A803120844
:101413003FFCA80312083F7BA90312083FB1A903AD
:1014230012083FDDA90312083F04AA0312083F284C
:10143300AA0312083FA1AA0312083FAFAA03120886
:101443003FE2AA0312083F74D10412083F80D1047B
:1014530012083FBED10412083FFDFF0212083F00ED
:10146300800312083F23800312083F76810312088A
:101473003FBF810312083F27820312083F8582037F
:1014830012083F88820312083FD4820312083F47A1
:10149300830312083FCF830312083FD2830312084A
:1014A3003F5C840312083F9D840312083F93880323
:1014B30012083F2B8A0312083F998A0312083F122E
:1014C3008E0312083F4B8F0312083FBE900312088E
:1014D3003F5C910312083F69920312083FB69403DD
:1014E30012083F8BBE0312083F35BF0312083F9B10
:1014F300BF0312083FB4BF0312083F30C0031208F2
:101503003F86C00312083FD6C00312083F3DC10304
:1015130012083FB6C20312083FE4C30312083F692F
:10152300C40312083F6FC60312083F18C70312080B
:101533003FC1C70312083F83C80312083F2CCA03E5
:1015430012083FD4CB0312083F85CC0312083F9DFA
:10155300CD0312083F2FCE0212083FA3CE0212087A
:101563003FEBCE0212083F2FCF0212083F78CF0283
:1015730012083F4AFE0212083FFACF0212083F78D0
:10158300D00212083FD2D00212083F26D20212081C
:101593003FB7D20212083F0FD30212083F29D302EA
:1015A30012083F51D30212083FA9D30212083F1871
:1015B300D60212083F37D60212083F1BD702120881
:1015C3003F4BD80212083FC8D80212083F17D9026E
:1015D30012083F78D90212083F3BF80312083FEC88
:1015E300DB0212083FECDC0212083F6ADE0212083B
:1015F3003F4BE00212083FB1E20212083F61E402EE
:1016030012083F31E50212083F9FE50212083FB678
:10161300E50212083FAEE60212083F9EE7021208F7
:101623003F09E80212083FE8B40412083F34B60445
:1016330012083FF1B60412083F55B70412083FE3FE
:10164300B10412083FFEB10412083F42B20412086B
:101653003F68B20412083F8EB20412083FA6B204D8
:1016630012083F09B30412083F1EB30412083F4196
:10167300B40412083F4AB40412083F53B4041208D6
:101683003F5CB40412083FFDA60412083FFCAA0401
:1016930012083F01AB0412083F03AB0412083F6872
:1016A300BE0412083F66D20412083F3AD20412085D
:1016B3003F76A80212083FA9A80212083F15A90203
:1016C30012083FB0A90212083F4DAA0212083F9226
:1016D300AA0212083FB4AA0212083FCDAA021208B6
:1016E3003FF3AA0212083F15AB0212083F53AB02A5
:1016F30012083F97AB0212083FB9AB0212083F1B17
:10170300AC0212083FE2AC0212083F99AD02120884
:101713003F0BAE0212083FD6AE0212083F29AF02BA
:1017230012083F8FAF0212083FC9AF0212083F1BD6
:10173300B00212083F89B00212083FF4B002120847
:101743003FF7B00212083F78B10212083F0FB2020E
:1017530012083F8FB20212083FAEB20212083F12C4
:10176300B40212083F1FB40212083F2BB50212083D
:101773003F38B50212083F41B50212083F19B702BC
:1017830012083F33B80212083FACB80212083F1EDA
:10179300B90212083F40B90212083FD4B902120835
:1017A3003FA8BB0212083F7FBF0212083F93BF024C
:1017B30012083FA3BF0212083FADBF0212083FB693
:1017C300BF0212083FBFBF0212083FC9BF0212087F
:1017D3003FF6BF0212083F1FC00212083F2AC00291
:1017E30012083F4EC00212083F72C00212083FDCCB
:1017F300C00212083F22C10212083F3FC102120871
:101803003FBCC10212083FF3C10212083F32C202B9
:1018130012083F7FC20212083F05C30212083FD3DA
:10182300C40212083F56C50212083F3AC602120804
:101833003FA1C80212083FFAC80212083F44C90276
:1018430012083F9FCA0212083FD4CA0212083F2659
:10185300CB0212083FDBCB0212083F8ACC021208EC
:101863003FC7CC0212083F5CCD0212083FC8CD022D
:1018730012083FF7260012083F29270012083F5796
:10188300270012083F2D290012083F0D2A001208D5
:101893003F652A0012083FA02B0012083FEC2B00E3
:1018A30012083F152F0012083F08320012083F5854
:1018B300330012083FEE330012083FFA33001208D8
:1018C3003F2C340012083FAF350012083FBD3600ED
:1018D30012083FE7360012083F4E370012083FA7B1
:1018E300370012083F0D380012083F243A0012084F
:1018F3003FB33B0012083F7D3C0012083FC33D004D
:1019030012083F13400012083FE3420012083FF061
:10191300420012083F77430012083F0B44001208AD
:101923003F4E440012083FD4440012083FF14400E4
:1019330012083F21450012083F56450012083F2672
:10194300460012083FCF460012083F5549001208CF
:101953003F754A0012083F604B0012083FE24B00FC
:1019630012083F19500012083F56500012083FAEAC
:10197300500012083FE1500012083F4B510012087B
:101983003F81510012083F0C520012083F6452007D
:1019930012083F3B530012083FF4530012083F8FD5
:1019A300540012083F97570012083FB3580012081B
:1019B3003F565C0012083F4A5D0012083F4D5D0030
:1019C30012083F7C5D0012083F825F0012083F5BF4
:1019D300600012083F9E600012083FF46100120885
:1019E3003F33620012083FC5620012083FF96200EC
:1019F30012083FBE630012083FD6650012083F4736
:101A0300660012083F87660012083F156700120838
:101A13003F3D680012083FFF680012083F066B0055
:101A230012083F1E6B0012083F326B0012083F6A18
:101A33006B0012083F986B0012083F176D001208E5
:101A43003F3C6E0012083FA06E0012083F526F0029
:101A530012083F826F0012083F49700012083FE1ED
:101A6300700012083F07730012083F3C730012080E
:101A73003F9F730012083FCE740012083F76750033
:101A830012083FA7750012083FBF750012083F4EAA
:101A9300760012083F02790012083FDA7A00120832
:101AA3003FF67A0012083F127B0012083FE07B00EA
:101AB30012083FD37F0012083F1F900112083F51C5
:101AC300900112083F40940112083F8C94011208C0
:101AD3003FD2940112083F74950112083FD095013B
:101AE30012083F15960112083F5C970112083F70D8
:101AF300980112083F5F9C0112083FE39C01120802
:101B03003FF09D0112083F4C9E0112083F3CA0018B
:101B130012083FB1A00112083FBBA00112083FC841
:101B2300A00112083FF3A00112083FDAA101120835
:101B33003F84A20112083F02A30112083F22A3011E
:101B430012083F4BA30112083F6DA30112083FCDBA
:101B5300A50112083F93A60112083FD8A601120857
:101B63003F55A70112083F06A80112083F38A801F4
:101B730012083F7EA80112083FBAA80112083F0AC3
:101B8300A90112083F5EA90112083FB4A901120876
:101B93003F00AA0112083F6DAA0112083FE8AA01FB
:101BA30012083FB3AC0112083FB3AD0112083FD88E
:101BB300AE0112083F17B20112083F2AB5011208FD
:101BC3003FE7B50112083F2BB60112083FDBB7010F
:101BD30012083FEFB70112083FF9B70112083F039C
:101BE300B80112083F0FB80112083F2BB8011208C1
:101BF3003FD6B80112083F15B90112083F1FB901BA
:101C030012083F29B90112083F99B90112083FE4AC
:101C1300B90112083FF9BA0112083F55BB01120876
:101C23003FD6BB0112083F95BC0112083F9EBD0180
:101C330012083FD2BE0112083FC0BF0112083FD8AD
:101C4300BF0112083F33C00112083F51C0011208FF
:101C53003F99C00112083FC0C00112083F5BC10198
:101C630012083F21C20112083FB3C20112083F2DDF
:101C7300C30112083F47C40112083FF4C40112080C
:101C83003F1CC60112083F6CC60112083FD0C601B3
:101C930012083F32C70112083F60C70112083F8490
:101CA300C70112083FB9C70112083FEAC70112086A
:101CB3003F1DC80112083F3DC80112083FA5C801D6
:101CC30012083F99C90112083FF4C90112083F1DC8
:101CD300CA0112083FA5CA0112083F28CB01120806
:101CE3003F53CB0112083F38CC0112083F37DC03C6
:101CF30012083F6FDC0312083F90DC0312083FD247
:101D0300DC0312083F34DD0312083F3EDD031208F3
:101D13003F4EDD0312083F89DD0312083F69E103EB
:101D230012083F56E30312083F3CE50312083FD372
:101D3300E50312083F75E60312083F3ACE01120885
:101D43003FB8CE0112083F14CF0112083F5FCF0105
:101D530012083F7ACF0112083FA5CF0112083FC2F4
:101D6300CF0112083FCECF0112083F65D1011208FF
:101D73003F7ED10112083F03D20112083F16D20160
:101D830012083F35D20112083FD9D20112083F5A37
:101D9300D40112083F0DD60112083FA3D601120841
:101DA3003FA6D60112083F16D70112083F34D701C8
:101DB30012083FCBD70112083F13D80112083F1670
:101DC300D80112083FDCD80112083F49D901120893
:101DD3003F6FD90112083FFAD90112083F18DA01FF
:101DE30012083F5EDA0112083F12DB0112083F5C62
:101DF300DB0112083F8BDB0112083FE8DB0112080D
:101E03003F1DDC0112083F49DC0112083F57DC018A
:101E130012083FA4DC0112083F14DD0112083F5DE4
:101E2300DD0112083FA9DD0112083FD5DD011208CB
:101E33003FE0DD0112083FFEDD0112083FE9DE014C
:101E430012083FF3DE0112083F2EDF0112083F3E66
:101E5300DF0112083F47DF0112083F9BDF01120831
:101E63003FAFDF0112083FDEE00112083FF5E0015A
:101E730012083F0AE10112083F98E10112083FDD11
:101E8300E10112083F69E20112083F74E2011208FE
:101E93003FB6E30112083FD1E30112083F1DE401FD
:101EA30012083F8CE40112083FC5E40112083FDF2A
:101EB300E40112083F21E50112083FF1E70112088E
:101EC3003F9EE80112083F0BE90112083F4BEB016B
:101ED30012083F63EB0112083F66EB0112083F72E1
:101EE300EB0112083F86EB0112083F8EEB0112084B
:101EF3003FC1EB0112083FC3EC0112083F4AED0159
:101F030012083FBAED0112083F3CEE0112083FFDF3
:101F1300EE0112083F1CEF0112083FBDEF0112084A
:101F23003F1AF00112083F1DF00112083F4AF00169
:101F330012083F5FF00112083FD3F00112083F225D
:101F4300F20112083F28F30112083FB3F30112080C
:101F53003FCEF40112083F96F50112083FC7F50181
:101F630012083FEAF50112083FF3F50112083F2278
:101F7300F60112083FB2F60112083F68F701120892
:101F83003FDDF70112083F84F80112083FF9F80119
:101F930012083F30F90112083F6EF90112083FA4FD
:101FA300F90112083F9EFC0212083F5CFC02120872
:101FB3003F7CFB0212083F66FB0212083F27FB022D
:101FC30012083F82FA0212083F7EF70212083F6CA2
:101FD300F50212083F39F50212083FD4F402120841
:101FE3003F67F40212083F26F40212083F5FF30230
:101FF30012083FFAF20212083FA5F20212083F4804
:10200300F20212083F1FF10212083FBCF00212084D
:102013003F06F00212083F01F00212083FF5EF02FB
:1020230012083FA8EC0212083F82EC0212083F2775
:10203300EC0212083FE5F70312083FD1F703120839
:102043003F30F70312083F34F60312083F5EF503EF
:1020530012083F67F30312083FBAF20312083FD294
:10206300EB0212083F93EB0212083F80EB021208C7
:102073003F75EB0212083F4FF20312083F51EB0288
:1020830012083F8CE90212083F0BE90212083FC70E
:10209300E80212083FBFFE0212083FA0E80212083E
:1020A3003F1EDA0212083F04F20312083FABF103AA
:1020B30012083F6DF10312083F40F10312083F0C71
:1020C300F10312083FABF00312083F93F003120829
:1020D3003F6FF00312083F38ED0312083F04EB0390
:1020E30012083FEBE80312083F7AE80312083F297E
:1020F300E80312083FE3E70312083FB5FE021208A4
:102103003F4CE70312083FC2CF0200000080FBE40C
:10211300738F0001009F15870001009D1535000492
:10212300006615250002006A15260002006C1527BB
:102133000002006E152800010078152900010079BE
:102143001584000400F5128600010017152A00010A
:10215300007A152B0001007B152C0001007F152D43
:1021630000080001132E00010080152F00010081DB
:102173001530000100821531000100831532000182
:10218300000913330001000A1334000100841536DB
:102193000001000B13380001008515390001007E92
:1021A30015830002009B15630001001713640001EF
:1021B300007C15650001007D156D00010018137189
:1021C300000800F912660001009A15430001008B14
:1021D30015440002008C15450001008E15460002CF
:1021E300008F15470008000F134800010091154B9D
:1021F3000001009215040001009E15A1000100A238
:102203001537000100A11588000100A0153C00014D
:10221300000C133D00010086154900020093156769
:1022230000010019134D00020095154E000100979F
:10223300154F00020098153E0001008A1551000158
:10224300000D135200010088155300010089155435
:102253000001000E130000000000000001363601EB
:10226300010001020100010301000104010606054A
:10227300020000070100340801000F090401010DE9
:102283000100FF0E08000017020000190100FF1AE9
:102293000100011B0100FE1C0100081D0200001FBC
:1022A30001000120010001210200002301000F248D
:1022B3000200002601000127010008280200FF2A6E
:1022C3000100072B0102402C0100002D0100012E0B
:1022D3000100012F0100FF30010B1D310800003AFE
:1022E3000100083B01000F3C0100013D0100FF3EDE
:1022F30004000042040000460400004A0400004EAB
:1023030004000052040000560400005A04000000B8
:1023130000030020011B900000000020011D90001D
:102323000004004201C98E0000050042017A8F00BB
:1023330000060042017A8E0000070030011E900063
:1023430000100042033215000011003003ED1100AC
:1023530000120010034315000094A12903C31100C8
:102363000095A12903C111000096A12003C5110303
:102373000000002103EE110000FDFF21011790036F
:1023830000FDFF2101179001037103010301030104
:1023930003010301032203020301031003000300EB
:1023A30003000300030003000300034203000324AC
:1023B3000306030003000304031203250323032579
:1023C3000323030403040300030003000344030083
:1023D3000300032303000365032100350381030086
:1023E3000305030003000300030003250323030382
:1023F3000271023001600211027002010202020244
:10240300028002100261023A004100630273027209
:1024130002620243020002130238000002000204B7
:102423000212020002000200020002040204023748
:102433000037003C0244020002390000020002653A
:1024430002000235028102000205028202830200B9
:1024530002010171010101010111010101310101B8
:102463000101018001100161013B0014006301734C
:10247300017201620143010001130106013D0135AF
:102483000004011201000100010001000104010424
:1024930001330133013C01440132013600000100E4
:1024A30001650100013500810100010501820183FD
:1024B3000100010300710030016000110070003160
:1024C3000220035004800010006100000014006328
:1024D3000073007200620043000000130006000056
:1024E30000000004001200000000000000000004CF
:1024F300000400370037003C0244000000000000E5
:1025030000000065000000350081000000050000A8
:10251300008300000036000100060000000F0000E9
:10252300000000000000000000000003FFFF0000A7
:102533000403FFFF0000FFFF0FF4010005C40403C1
:1025430020000100000B0000000000000000030158
:102553000F00000000000000000000000000000069
:102563000000000000000000000000000000000068
:10257300000000A912D312AF12F511B512D912B58A
:1025830012E512BB12F511B512D912C112F51100E1
:10259300000000C712F5110000000000000000CD8C
:1025A30012F5110000000000000000000000000010
:1025B3000000000000000000000000000000000018
:1025C3000000000000000000000000000000000008
:1025D300000D1501000D150200831402807D140304
:1025E30000891404008F140480951405009B1406BD
:1025F30000A7143100B9143300BF143400C514FF0D
:10260300FF000007ECFDFDFDECDCDCCCBCACAC9CBE
:102613009C8C7C7C6C6C5C5C5C4C4C3C3C2C2C1C27
:102623001C03EAF5E5D5D5C5B5A5959585857575DD
:10263300656555554545353525251515050A311B60
:1026430002FB1A05071B07011B0CE31A0DEF1AFF08
:10265300000000160F00000B150B020002220F33BF
:1026630000000E0F5A6967426565416C6C69616EC3
:1026730063653039D0D1D2D3D4D5D6D7D8D9DADB24
:10268300DCDDDEDF303016181920231A1C1E300063
:10269300034D4C4651181A25050200011916181648
:1026A3001618230300303017181921301B1D1F3053
:1026B300003C40423A3F3F392F47300C0E020B0497
:1026C3000B0A0708000F020402010101010902E8D5
:1026D30003000000BE040A01000E000300E803FF2C
:1026E30004090F03101E030A0C04040828020C0536
:1026F30008151E04C082C083120B6B901342748BA7
:10270300F0A37418F09013447491F0A37418F0902C
:1027130013467497F0A37418F0901348749DF0A3B4
:102723007418F002605474F71203B5901336E4F092
:10273300E9901335F07C0F7D137A377B131211A7C1
:10274300901591E090133FF090134074F9F0A37447
:102753001202373674F01203B5EAFEEBFF548070B1
:10276300030228C890133512436B70030228C1EA91
:10277300241B125BE1707CEA241F125BE16413707B
:1027830002A3E0706E8A828B831229169013501273
:102793005173750A00750B00800D12359512727214
:1027A3001210A5AA0EAB0FEA4B60488A828B83E016
:1027B300650C7004A3E0650D702C8A828B83A3A340
:1027C300A3A3E0F50EA3E0F50FE50A450B8A828B80
:1027D30083A3A3A3A360C31244B2850A82850B8398
:1027E300A3A3A3A380B78A0A8B0B8A828B8312517C
:1027F3006F80B4E508242A125BE1FCE5082402F8A3
:10280300E43509F9E8FAE9FB9013501229FDA3A373
:10281300E06402703C8A828B83125173800B88823E
:102823008983A3A3A3A31244B2E849601F888289C2
:1028330083E06A7003A3E06B70E488828983A3A3B7
:10284300E06C70DA901597125F11806BECF9121837
:10285300C7850882850983E06401704FE508241861
:102863001228FF1208981268041206E3E5082412DE
:102873001228FF120898E50812435F120894E5082E
:10288300240B1268081206E7E5082417123D95E5A4
:10289300082402FCE43509FDE5082419FAE43509A6
:1028A300FB1220E3740A1208A7800CE0640270078D
:1028B300AA08AB091219EDAA08AB09121015EEFA12
:1028C300EF6480802DEA5402600C9015A67401F029
:1028D300EA6402FA8023EA5408601A1218C1EA4B28
:1028E300700B9013521266DF7A0812290CEE6408FB
:1028F300FAEFFB80047A007B00026E9BF582E435DD
:1029030009F583E0F50A780A22FB901335E0F91202
:10291300117722A3A3E0F50CA3E0F50D227B009031
:102923001335E0F912116B74042274F41203B58A9F
:10293300088B098A828B83A3A3A3124F6B123FD503
:1029430038F583E02409FA126E2C70030229F08A09
:10295300828B837402124FE08508828509831229D2
:10296300FDE8F0A3E9126AA68A828B83A3A3A3A33B
:10297300A3A3A3A3F0E5082403F8E435091229F27D
:10298300123FD53AF583E08E828B83A3A3A3A3F0F2
:10299300EE2409FAE43FFB8E828F83A3A31261C363
:1029A300F5838882E0A2E58E828F83A3A3A3A3A3EA
:1029B300500474018001E4F0E5082403F58289835F
:1029C300125173EA1256F43BF583126DF312089019
:1029D300123FD43B1262BE8E828F83A3A3127FB2B7
:1029E3001208A7EEFAEFFB901335126E798016F9F1
:1029F3008882F583E0FAA3E0CA22125310A3A3222C
:102A030074021208A77F040205DD74F21203B58A6B
:102A1300088B09ECFAEDFB740E120B3AE0FC120B77
:102A23009B8A0C8B0DAE0CAF0DEA4F6030AC08AD3A
:102A330009120B89E96026AC08AD09EEFAEFFB1227
:102A43000B8FE970148E828F8312449BFAEFFB1273
:102A53000B83AA08AB09120BB37900800279B40285
:102A6300525F74F01203B574F612093BEAFEEBFFF2
:102A73008C088D09750FB3852182852283E4F07557
:102A83000E008002050E9026EDE493F8E50EC39840
:102A93004003022B8CAA0E7B00120BD78A0A8B0BE6
:102AA300EA4B60E08A828B83A3A3122B9328F0F86E
:102AB300C3EE98EF940050CC7C157D007900AA08F2
:102AC300AB09120FFD850A82850B83A3A3A3A3126F
:102AD30072AFE0F8EEC3982925E0F8E433F9E50A8C
:102AE30028F582E50B39F583A3A3A3A3A3A3123F80
:102AF300DFA3125D388A0C8B0DAC0CAD0DAA08ABAD
:102B0300091211A7850A82850B83A3E06401700A69
:102B13001268047401123FFD804474011209058593
:102B23000A82850B83125171120BBFE9603D740950
:102B3300120B3AE0C0E0126804D0E0F07409120B03
:102B43003AE0640370137401120905E508240BFAD3
:102B5300E43509FB1211A780127401120B3A1244D7
:102B6300B2E508125D1E3509127270850A82850B63
:102B730083126810123FFDA3A3E0C0E0E50824140C
:102B8300126808D0E0F0750F00A90F740A026E985E
:102B9300A3A3A3E0F8852182852283E02274F712A0
:102BA30003B5E9FE8A828B83A3A3A3A3A3A3E05463
:102BB3000860338A828B83A3A3A3A3A3A3E0540255
:102BC30060218A828B83A3A3A3A3A3A3A3A3A3E0CC
:102BD3006406600F74E96E600A74CD6E600574F06C
:102BE3006E70031218A9024B5B74F01203B574EFF5
:102BF30012093B740F120B3A1265C37408120B3A95
:102C0300E9F0ECFEEDFF7405120B3A124923124B67
:102C130047A3E0F9120BA77406120B3A1265C374AB
:102C230006120B3A1257857003022EA7124283E055
:102C3300FA7406120B3AE0F91217E9122F07F8A3F8
:102C4300E0F9E8497003022EA7EE2403F50AE43FF6
:102C5300F50BEE2406F508E43FF5097C00850882B0
:102C6300F583125173850A82850B83E0F9120BAD4C
:102C73007403120B3A1265C3850A82850B83E0C085
:102C8300E0852182852283122F00D0E012589AF921
:102C930085218285228312359C1253EC122B96FADE
:102CA300A3E0CA2407F582E43AF583E8F0A3E4122B
:102CB30065CE2406F582E438F583E412727C124F64
:102CC3005C120890EE123FD53F1262BE7403120BE2
:102CD3003A124F6B2409127FAC1208A77429120B06
:102CE3003A1272A91229F71258AD3A127270742B64
:102CF300120B3AE0C0E085218285228312574CD023
:102D0300E0F07402120B3AE4F07425120B3A7808DF
:102D1300120AE3022DFE7403120B3A12627D8882BB
:102D2300F583122EEFA3A3A3125D43FB120BC585FC
:102D33000E82850F83A3EAF0A3EBF07403120B3A20
:102D4300122F00A3122EEF125F52A2E6500F850E30
:102D530082850F83A3A3A3A3A3E0D2E1F07405129A
:102D63000B3AE0706B850E82850F83A31244B290F9
:102D73001394E0687003A3E0697055850E82850F94
:102D830083A3A3A3123BAC750C00780C12089878AC
:102D93000812088C7429120B3AE0F50C780C12080F
:102DA300987427120B3A1206E79013A11206E779DB
:102DB300007419120B3A125143121A35740A12088D
:102DC300A7850E82850F83A3A3A3A3A3E04405F0E5
:102DD3007402120B3AE004FC8E828F8312516D8EC3
:102DE300828F83A3A3A3E0F9120BAD7403120B3AF2
:102DF3001265C37402120B3AE004F07403120B3A27
:102E030012578560677402120B3AE0FA7406120BCC
:102E13003A1244B2C3EA98E49950517402120B3A3D
:102E23001231D9852182852283E028F8A3E039F97C
:102E3300E8240FF50EE439F50F850E82F583E4F0EF
:102E43007403120B3A122EFA64016003022D1974F3
:102E530005120B3A7401126E86F07403120B3A12C8
:102E630060441231FCE8F0A3E9022D3D85218285FF
:102E730022831251731217EF852182852283120652
:102E8300E77426120B3AE0FD7425120B3AE0FC744A
:102E93000A120B3AE0F9EEFAEFFB1218A3740212CE
:102EA30008A780438E828F83A3A3A3E0C0E0740CA2
:102EB300120B3AD0E0F0126CE8E0C0E0740D120B94
:102EC3003AD0E0F07406120B3A1257857009740E6B
:102ED300120B3A74B98007740E120B3A7410F07423
:102EE300091208FD121A2F7411026E98E0850E82E2
:102EF300850F83A3A3A322E0125872E022E01258A5
:102F030072A3A322852182852283EAF0A3EB1257C1
:102F13008E2274F01203B574E112093B7404120B90
:102F23003AE9F07403120B3AECF07402120B3AED27
:102F3300F08A0E8B0F742F120B3A122918AA0CFB6E
:102F43001217DD7401120B3AE9F0AA0CAB0D12173C
:102F5300E37401120B3AE070030231D485218285B8
:102F63002283E480158E828F83A3A3A3A3A3E0D23D
:102F7300E3F0852182852283E004126DD7F8852151
:102F830082852283E0C39840030231CB7401120B84
:102F93003AE070030231CB8521828522831231D935
:102FA300E50C28F8E50D39F9E8240FFEE439FF8E26
:102FB30082F583A3A3A3A3A3E0A2E040B575080011
:102FC300750A08750B007402120B3AE0600375086A
:102FD300207C087D00790074051208FD120FFD8E18
:102FE300828F83E0603E9013E4E06401701AE50889
:102FF300D2E3F508750B101231E9120B3AE8F0A38E
:10300300E9125C3674FF807643080C750A0C8E82D5
:103013008F83A31231F41272727405120B3A74FF88
:10302300F0A3805A7404120B3AE06009E508D2E673
:10303300F508750A0A8E828F83A3E064FE7003A3EA
:10304300E0F470307412120B3A740412682EF874A0
:103053001D120B3AE8124FE074121208FD12170BFF
:103063007D007C0079007415120B3AAA82AB83129F
:1030730014F5800B1231E9120B3AE8F0A3E9F0746E
:1030830007120B3AE508F0124271C0E07409120B03
:103093003AD0E0F0740A120B3A7401F07405120886
:1030A300FD1219F37411120B3AE060030231A97493
:1030B3000D120B3A1258958E828F83A3A3A3A3F00C
:1030C300740D120B3A124FAEE50AF0A3E50BF07440
:1030D30003120B3AE0C0E0124F3CD0E0125F5260A3
:1030E300119013E4E0C0E0740D120B3A124F89D033
:1030F300E0F0740D120B3A1244B2850C82850D83F5
:10310300A3A3A3A3A31231E2241C1265BD12728CE4
:103113001231E4125F0439126D07C0E0124F23D05D
:10312300E0126DCCC0E0740D120B3A124A69D0E084
:10313300126ACDC0E0740D120B3A124A5FD0E0F070
:10314300740D120B3A1231F41231E2242A1265BDC6
:10315300850E82850F83A3A3A3A3A3A3A3A3E01236
:1031630065B6124260C0E0124A4BD0E0F0740D1213
:103173000B3A125173850E82850F83126DE2242858
:10318300F582E43B127270124269126DF3120890D9
:103193001262B7EA12654F3B127FB01208A774059B
:1031A3001208FD1219F98E828F83A3A3A3A3A3E0B0
:1031B300D2E0F07411120B3AE06003022F6874013D
:1031C300120B3AE014022F747900AA0CAB0D1218FB
:1031D300AF741F026E98E075F007A4F8A9F022A35C
:1031E300A3125177E8228E828F83A31244B674050B
:1031F30022E01231FCA3A3A322F8A3E0F9850E82F7
:10320300850F83A32274F01203B574E812093BE916
:10321300852182852283F08A0E8B0F8A828B83A37A
:10322300A3A3A3A3A3A3A3E0F91218078A088B09F6
:10323300EA4B70030232E5E50E1257081242981268
:103243003C77852182852283E060030232E87C0497
:10325300850E82850F83A3A3A3A3A3A3A3A3E0F94E
:1032630012180DEE4F607B8E828F83A3A3A3A3124C
:1032730044B27407120B3A1266F41244B274091280
:103283000B3A125010C0E07411120B3AD0E0126ADC
:10329300ABA3A3A3A3A3A3A31244B2740F120B3A29
:1032A3001272727412120B3AE4126E8EC8241FF556
:1032B30082E438F583126279C413135403FC700259
:1032C3007C048E828F83E0F9780812089474205965
:1032D300FD744059F974031208FD1218A374021205
:1032E30008A7026E967C08850E82850F83A3A3A38D
:1032F300A3A3A3A3A3E0F912180D8B0BEA4B70034E
:10330300023266EE4F60DB852182852283E0F50C75
:10331300780C120898850882850983A3A3A3A3A325
:10332300A3A3E0F50C780C1208988A828B83A3A3DD
:10333300A3E0FB8A82850B83127ACF8A82850B8373
:10334300E0FA8E828F83A3A3E0F91220E9740212BC
:1033530008A702326A74F71203B574FA12093BE93B
:10336300FE780179017F00800379000F1252EFE0AC
:10337300FCEFC39C5026EF75F007A4FC85F008AD65
:1033830008EA2CFCEB3DFD1248DBE0A2E050DA54E6
:103393000C60D6E0A2E250D3780080CF8A828B8380
:1033A300A3A3A3A3A3A3E0703DE9A2E04005740196
:1033B3006E70338A828B83A3A3A3A3A3A374011286
:1033C30036ACE0C0E07403120B3AD0E012493AE0A5
:1033D300C0E07404120B3AD0E0F07405120B3AE823
:1033E300126218121A2F7406024B58C082C08379D6
:1033F300011218AF02605474F41203B5EA4B90152E
:10340300A66019E4F08A088B09F50AF50B7808120F
:10341300088C7A021229201208A7800A7401F07A14
:10342300027B0012290D022A0874F01203B574F30B
:1034330012093B7403120B3AE4F0A3F090135012F9
:103443003C777401120B3AE4F0A3124FE504F090B9
:10345300138EE0A2E3500302351F1236A074091243
:103463000B3A120AFF7409120B3A7808120AE39016
:103473001352780812090D7405120B3A7808120AD0
:10348300C51235A37405120B3A7808120AA5500722
:103493007A017B000235907405120B3A780C120AFC
:1034A300E3901596E0F509780C7908120346A80C09
:1034B300A90D901597E0C398E4995003E08001E8C3
:1034C300852182852283F07409120B3A7808120A47
:1034D300E3C008C009C00AC00B7405120B3A780C8C
:1034E300120AE31235A3780C7908120346E4F50AAD
:1034F300F50BD00FD00ED00DD00C780C7908120933
:10350300B8901352780C120AC580111235951272B5
:1035130072EEFAEFFB1210A5AE08AF09EE4F60652D
:103523008E828F83122B93C398502DEE2403F8E4DD
:103533003FF9E0FA88828983E0C39AF06023740339
:10354300120B3A12461C7401120B3AEEF0A3EF125F
:10355300670FFEA3E0FF80C48E828F83A3A3A3E43F
:10356300F08E828F83127F697401120B3A12578592
:103573008E828F83A3A3A3A360911266E8120B3AF2
:1035830012359C80897403120B3A125173740D0225
:103593006E981244B6901350221262A4A3A3A322DE
:1035A300901595127F71E4F50AF50B2274F012035E
:1035B300B58A088B09890A78007900901350123C68
:1035C30077FBEE4B601E088E828F83A3A3A3A31207
:1035D300513D601008E87001098E828F83123C739D
:1035E300EA4F70E3901598125173C3E89AE99B4030
:1035F300030236937A06123696A80CA90DEA49708F
:10360300030236938A828B83E508F0A3E509123619
:10361300B5E50AF09015971252F71236ACA3E4F011
:10362300A3F090135012513D600D8E828F83A3A39C
:10363300A3A3127272801790135012727290138E9A
:10364300E0A2E340091236A0901352120AFF90132E
:103653008EE0A2E3503A7A087B00901335E0F9122A
:10366300117DEA4B4C4D7028901595E0F508A3E0C9
:1036730085080CF50DE4F50EF50F780C12088C7A1D
:10368300087B00901335E0F912117174041208A736
:10369300026E9B7B0012109F8A0C8B0D2212118FDE
:1036A300EAF8EBF9ECFAEDFB221236B0221236B54A
:1036B300A322F08A828B83A3A322C082C083E990D2
:1036C30015A7F090134A74E5F0A37418F090134C07
:1036D30074F7F0A37418F090134E7409F0A37419DF
:1036E300F002605474F71203B5EAFEEBFF8908EAAF
:1036F3004F7003120C67901356125785700890137E
:1037030056801E1244B288828983A3A3A3A3A3A3D2
:10371300A3A3A3124401A3A3A3A3A3A3A3A3A3703B
:10372300E2EEF0A3EF12373AA3A3A3E4F0A3123718
:103733003AE508F0024B5B12373E2212374222F081
:103743008E828F83A3A3A3A3A3A32274F71203B52B
:10375300E9FD901356800D88828983A3A3A3A3A3B5
:10376300A3A3A3A3125785603488828983A3A3A349
:10377300A3A3A3A3E06D70DF88828983A3A3A3A37C
:10378300E06A7003A3E06B70CE88828983A3A3A34E
:10379300A3A3A3E06C70C0E8FAE9FB80047A007B82
:1037A30000024B5B74F71203B5901356123C7790EB
:1037B3001356126DE6687002EB697017EE24091256
:1037C30044AC901356127272901356123C778030A9
:1037D300123C6AEE4F60298E828F83A3A3A3A3A317
:1037E300126DE2687002EB6970E68A828B83A3A391
:1037F300A3A3A3A3A3A3A3124A55A3A3A3127272C1
:103803001210A5EEFAEFFB024B5B74F01203B574D2
:10381300F912093B8A0C8B0D8A828B83A3A3A3A382
:10382300A3A3A3A3E0602F6401602B8A828B83127E
:103833006AB57022850C82850D83A3A3A3A3A3A3DA
:10384300A3A3E0640370147402120905AA0CAB0D60
:10385300121987E970167902023A0F850C82850DD9
:10386300831244B27402120B3A127272E50C2411E1
:1038730012728424341261D212109F8A088B09AE0B
:1038830008AF09EA4F7003023A0D7C347D007900DA
:10389300120FFDAA21AB22850C82850D83A3A3A35E
:1038A300A3A3A3A3A3A3E0F91220A78521828522C2
:1038B30083E0C0E0123A14D0E0F0EE242EF50EE4DB
:1038C3003FF50F7401120B3AE0850E82850F83F0EA
:1038D3007901EEFAEFFB1218D3850C08850D0975F3
:1038E3000A0078081208907C1E7D00EE240B126DEE
:1038F3009E1208A7EE2432FAE43FFBEE2434F8E4E8
:103903003FF98A828B83127272E50C2411FCE43531
:103913000DFD8C82F583124FA9243012726CE50CD5
:103923001248ED1272C5127FA61208908C828D8305
:10393300127AD08A828B83127FB21208A774021282
:103943000B3A1244C0A3A3A3A3E8F0A3E9125F4C6C
:103953008E828F83A3A3A3A3A3A3A3125F4C0412FA
:103963003DB4242CF8E43FF9E8FA7508FF75090023
:10397300850E82850F83E078081209CC8A828983B9
:10398300E508F0EE242B123D8B7404120B3AE4F09D
:10399300E50C2415127284A2E074055007120B3A49
:1039A30074018004120B3AE4F0EE2429F508E43F95
:1039B300F50974041208FD1220BFE924FE8508826C
:1039C300850983F0EE24301256FA123A1C12026D66
:1039D300E88E828F83A3A3A3A3A3A3A3A3F08C82C4
:1039E3008D83123A1C12026DEA4B600F8E828F8315
:1039F300A3A3A3A3A3A3A3A3E004F0EE2420125B39
:103A0300C844081242D57900800279107407026E07
:103A130098EE12654F3FF58322123FE7E0FA7B00F1
:103A23002274F41203B5EAFEEBFF1242581265C387
:103A330090158BE0F8EE242D125BC8C39840030267
:103A43003B8D123B957012EE242D125BC80412536A
:103A530033C0E0123D81D0E0F0123B9DFA79008043
:103A63000109EE242E125BC8F8E9C39850267508A5
:103A730001750900E978081209CC123B95550860D5
:103A8300E0E92AFA750801750900E978081209CCFA
:103A9300E04508F0EE2429125BC8FBEE2430F582E2
:103AA300E43FF583EA8BF0A4F8ACF0E42CF9E0985A
:103AB300F8A3E099F9EBFCC3E89CE99400EE4031EC
:103AC3002429125BC8F8123B95602C123A14123B5E
:103AD300ACA3E4F0EA7047EE2420125BC844201242
:103AE3005014C0E0125321D0E012532BFCA3E0800A
:103AF30055123D8274FFF0901384E0FC90158E12F2
:103B03003BA3ADF075F064A4FCABF075F064EDA4D9
:103B13002BFD8E828F83A3A3ECF0A3ED80B5EE245F
:103B230020125BC854DF12531CEAF0FCEE2429F583
:103B330082E43FF583123BA3FCADF0EE2432125B2B
:103B4300C82CFCA3E03DFD126D96ECF0A3ED1268CA
:103B530037C0E0EE2425F582E43FF583D0E0F0EEB4
:103B6300241CF582E43FF583E8124FE090135812CA
:103B73005785600AEA1263AC122112E97011EE2430
:103B83000BFAE43FFB12195D80057BE9123D9F02AE
:103B93002A08EE242B125C49F422EE1252DDE022B5
:103BA300E0F508EC8508F0A422125BEFA3A3F02252
:103BB30074F41203B5901356123C7712118F8A0ACC
:103BC3008B0B78FF79FF8020E0C39AFCA3E09BFD79
:103BD300C3EC98ED99500E8E828F83A3A3E0C39A12
:103BE300F8A3E09BF9123C6AEE4F60538E828F83F9
:103BF300125173E50AC39AFAE50B9BFB127ACAC307
:103C0300EA9CEB9D8E828F83A3A340BCA3A3A3A3B3
:103C1300E06402701712427A6009124283125173F0
:103C2300121015EEFAEFFB1218DF8007EEFAEFFB26
:103C33001218EB7A017B009015A712573880257470
:103C4300FF68700374FF69601B88088909E4F50A3B
:103C5300F50B780812088C7A017B009015A71229BE
:103C6300251208A7022A088E828F83A3A3A3A3A3E6
:103C7300A3A3A3A3E0FEA3E0FF2274F31203B58A78
:103C8300088B09ECFAEDFB890C7C01E50824111281
:103C93003D951218D98A0A8B0BAE0AAF0BEA4F7007
:103CA30003023D7CE50C6003023D7CE5082413120E
:103CB3005BE1F8EA123B9E686003023D7CEA125224
:103CC300E6125C028E828B83A3A3A3A3A3A3A3A365
:103CD300E0FAE89AE99400C365D0334012E508247A
:103CE30014125BE1F470087B00123D9F023D7CE5FA
:103CF300082414125BE1F47049EE242BF8E43FF935
:103D0300E8FAE9FBEE242EF8E43FF9E8FCE975084C
:103D1300FF7509008882F583E078081209CC8A824E
:103D23008B83E508F0EE242C123D8B8C828983E093
:103D3300F8123B9D28F0EE242DF582E43FF583E451
:103D43008021E5082414F8E43509F9E0C0E0EE2405
:103D53002CF582E43FF583D0E01261A7C0E0123D69
:103D630081D0E0123DB4123A15125BEAA3124FE080
:103D73007A01FB9015A71257387F050205DDEE2463
:103D83002BF582E43FF58322F582E43FF583E508D2
:103D9300F022F582E43509F583E0F922EE242212BC
:103DA3005C49FA123FC1126B64EEFAEFFB1218DFA3
:103DB30022F012118F8E828F83EAF0A3EBF0EE22B2
:103DC30074F01203B574FB12093B7403120B3A121D
:103DD3004FDAE9852182852283F08A0A8B0B8A8256
:103DE3008B83A3A3E0F91220CB8A0E8B0FEA4B70CF
:103DF300077A007B00023FBC7A121274C27003027E
:103E03003FB87C127D007900120FFD74011208FD8A
:103E1300850A82850B83A3A3E0F91220A7E5082472
:103E23000FFEE43509FF7402120B3A125BEFF079CF
:103E330002AA08AB091218D37403120B3A1265973E
:103E4300123FDF123FF72411123FCB850882850909
:103E530083A3A3A3A3A3A3A3F0750CFF750D008EE7
:103E6300828F83E0780C1209CCE508240C126808D1
:103E7300E50C126E7FF8A31263ADE0C0E0E5082401
:103E83000B126808D0E0F0E50A123FD5123FCEFAD4
:103E9300E508240D126808EAF0E50A1248ED123F1E
:103EA300CE8AF0A4A9F02427FAE439FB12100F8A72
:103EB3000C8B0DAE0CAF0DE508123FD5350912651D
:103EC300C1EA4F7003023FAB8A828B83741A124F8D
:103ED300E08A828B83A3A3F0A312400B12530C122C
:103EE30066EE120B3A127AD0EA12702C1220AD85CC
:103EF3000A82850B83A3A3A3E0C0E0125BD5D0E0C5
:103F0300F09013A1124FA92410123FF11248BC35AF
:103F13000BF583124FA91262AEE8F0A3E912400B2E
:103F2300124FA5126CE9E8F0A3E9123FFDE0C0E0EF
:103F3300123FC1D0E0F0E50A240C123FCBC0E0EE03
:103F43001248BC3FF583D0E0F07415120B3A126CA3
:103F5300F6C0E0127023D0E0126829C0E0126CDCD6
:103F6300D0E0124942C0E0124F46D0E012578AC057
:103F7300E0124F2DD0E0F07417120B3A120B0BEE38
:103F8300241AF582E43FF583120AFFEE2427F8E4AE
:103F93003FF9EE2422123FF1126199123FCEC0E0A5
:103FA300126DB8D0E0F0800DAA08AB091218DF75C6
:103FB3000800750900AA08AB097405026E98EE247F
:103FC30014F582E43FF58322F582E4350BF583E0B3
:103FD30022EA123FD9222410F582E422123FE7A3FA
:103FE300A3A3A3221244BA85088285098322F582FA
:103FF300E43FF58312500AE50A2212400122F085BC
:104003000A82850B83A3A322124001A3A3A3A322A5
:1040130074F01203B574FE12093B85218285228355
:10402300124FDA8A0E8B0F890DC200EA12428FE01B
:10403300F50C901358125785600EA90C1263AD123C
:104043002112E960030242537C021242B41242601D
:10405300F91218D98A088B09AE08AF09EA4F7055CF
:10406300850E82850F83A3E0A2E0400302425374CE
:1040730014120B3A1206E37416120B3A1206E7A94E
:104083000D7406120B3A127AD0AA0EAB0F1218FD5A
:1040930074061208A78A088B09AE08AF09EA4F70A5
:1040A300030242538A828B83A3A3A3A3A3A3A3A341
:1040B300E50C1242D5AA0C8E828F83A3A3A3A3A3DC
:1040C300A3A3A3E024FFF8E434FFF9E86A497002EC
:1040D300D20012427A700302420F850E82850F834B
:1040E300A3E0A2E05003750C001242C2E50C98E471
:1040F30099C365D033401CE0F8EE240E125BC82C44
:10410300F07508FF750900EC78081209CCEE240C51
:10411300123D8B124269126DF31208901262B7EED0
:10412300240D125BC8F508E50C8508F0A4FAABF082
:10413300124F682422F582E438F583E02AFAA3E0DB
:104143003BFB1272991208A775080112429D780869
:104153001209CC125BC54508F0A200506BEE240C8B
:10416300FAE43FFB7508FF12429D0478081209CC5C
:104173008A828B83E04508124FC0F8E50CF508E806
:104183008508F0A4F8A9F0124271FCE82CFCE4398C
:10419300FD124F682420F582E438F583ECF0A3ED9B
:1041A30012604AF47022EE240BF508E43FF509127D
:1041B3004283125173850882850983126E798508BB
:1041C3008285098374FF80431242581265C390139A
:1041D30084E0FA90158E1242ABFAABF090158B1275
:1041E30042ABF8ACF08508F0EBA42CF9EA28F8EB25
:1041F30039F9E875F064A4F8AAF075F064E9A42A23
:10420300F98E828F83A3A3E8F0A3E9F0AA0C1242EC
:10421300C2126F6DE86A7001E9600CEE240C123B68
:10422300986004A2005029EE240E125BC8C0E0E59A
:104233000E12428FD0E0F0125BC5C0E0E50E2414ED
:10424300124295D0E0F0AC0EAD0F1242B412194BEE
:104253007402026E9812118F8E828F8322E50E24D0
:1042630011124295E022E50E240E12429522E50E2C
:104273002410124295E022EE125D1E125C4CF422D1
:1042830012428722EE123FD93FF5832224131242B2
:104293009522F582E4350FF58322750900125C46F9
:1042A300F5F0E50C84E5F022E0F508EA8508F0A4D2
:1042B300228521828522831262F4FAA3E0FB22EE97
:1042C300240E125C49F8125C46FCE82CF8E4340036
:1042D300F922F07A017B009015A7E0F91210512220
:1042E300C082C0839015A7126E7902605474F412D1
:1042F30003B5EAFEEBFF5480704BEAA2E05056127E
:1043030018F1EE6401FAEF80498A828B83E064013D
:10431300702CEA1268061206E3EA12435F1208944D
:10432300EA2412123D95EA2402FCE43509FDEA244D
:1043330019FAE43509FB12190374061208A7AA082F
:10434300AB091210159015A712436B70BCEEFAEF70
:104353006480FB80047A007B00022A08240FF50A9C
:10436300E43509F50B780A22E0F91210278A088B45
:1043730009EA4B2274F21203B5890B8A088B098A66
:10438300828B8312517312191BEA4B600479B88034
:104393006A121927E9F89026E7E493F9E8C39940EC
:1043A3000479B280567A15123696AE0CAF0DEA4FE9
:1043B3007004791080458A828B83E4F0A31236B5AA
:1043C300E50BF0750A0078081208907C127D00EA6C
:1043D3002403126D9E1208A790135A125785700872
:1043E30090135A800C1244B288828983124401705C
:1043F300F4EEF0A3EFF0121939790002525F125173
:1044030077EA4B8882898322C082C08390135A80C3
:10441300048C828D83127AD0EC4D60288C828D833C
:10442300A3A3E069600574FF6970E68C828D83A3A2
:10443300A3A3E06A7003A3E06B70D6EC2403FAE451
:104443003DFB80047A007B0002605474F71203B5CD
:10445300E9FD74FE6D70047C0180027C0090135AA8
:1044630080096D70027C0188828983125785601FE1
:1044730088828983A3A3A3E06A7003A3E06B70E738
:10448300ECA2E088828983A3A3E050D6F980027965
:10449300FE024B5BEEF9800CA3A3127F71EE227434
:1044A300021208A77F020205DDF582E43FF58312BD
:1044B30044B6221244BA22E0F8A3E0F9221244C41B
:1044C300221244BA8E828F83221208A77F03020529
:1044D300DDC082C083790090135A800109E0FAA3FA
:1044E300E08A82F583E582458370F102605474F6B5
:1044F3001203B5E4F508F50978081208949026E745
:10450300E49375F013A4A9F01246111272D01208A5
:10451300A7E9FE74096E700312193302449774F607
:104523001203B574FE12093B852182852283E4F0D0
:10453300A3F0A821A922880889097808120894758C
:1045430008027509007808120894126F381208A738
:104553000244A274F51203B574EB12093B85218260
:10456300852283E4F0A3F090135A80748E828F83A4
:10457300A3A3E0C0E07402120B3AD0E0125C36A9A8
:1045830082AA8389088A09750A0078081208907C30
:10459300127D007406120B3A1272951208A7740268
:1045A3001208F588088909780812089475081375A4
:1045B300090078081208947404120B3A12572875EC
:1045C300F013A4F8AAF075F013E912460D126F4028
:1045D3001208A785218285228312461C8E828F832F
:1045E300123C77EE4F7085A821A9228808890978A3
:1045F30008120894750802750900780812089412C5
:104603006F381208A774150244CCA42AF9E82402CF
:10461300FCE439FD7A427B0022E02401F0A3E0347C
:1046230000F02274F41203B574EB12093B7E007F91
:1046330000A821A922880889097808120894750816
:10464300028E0978081208947C007D007A42127267
:10465300DC1208A7E9706C8E08805674021208F504
:10466300880A890B780A120894750A13750B007867
:104673000A120894E50875F013A4F8AAF075F0136C
:10468300E50912460D1272DE1208A7E9701B7403C6
:10469300120B3AAA82AB837402120B3AE0F9121995
:1046A30015E970050EEE70010F0508E508700205A7
:1046B300098521828522831244B2C3E50898E5095E
:1046C300994098EEFAEFFB7415022A0574F612036B
:1046D300B58C828D83A3A3124928F0EA1265553B5A
:1046E300F583E0C0E01248E5D0E0F0EA241DF5824E
:1046F300E43B1244B01248C9124923F0A3F0EA2460
:104703001FF582E43BF583123C77EC1248BC3DF580
:1047130083EEF0A3EFF01248C23BF5831248F3A3F4
:10472300A3A3A3A3A3EEF0A3EF1261A7FE8C828D34
:104733008312493274035EFEC3940340030248AFFD
:10474300EE600874026E60030247D48C828D83E0AE
:10475300540CFE740C6E7003024813E0A2E4400D87
:1047630088828983E08C828D83A312494874086E02
:1047730060030248131248D37401F08A828B83A327
:10478300A3A3A3A3125BFC70148C828D83E0440C5F
:1047930012493AA3A31248F3EEF0A3EFF08C828DF3
:1047A30083E0A2E4402B888212490112491650018A
:1047B30009F582124901A3A3A3A3A3A3F0A3EF12B4
:1047C30049428C828D83A3A3A3F0E82403F850010C
:1047D3000988828983E0C0E0EC2411F582E43DF589
:1047E30083D0E01249328C828D83E0A2E750758832
:1047F300828983E0FE8C828D8312494874FC5E704B
:104803000C8C828D83A3E054036403701E0248AFB3
:104813001248D3E4F0740C6E600302477E88821260
:1048230049071249165001090247A08C828D83A3C0
:10483300E05403603288828983E0C0E0EC1248EDE3
:104843003DF583D0E01249498C828D83E0540364A3
:1048530002701488828983E0C0E01248DBD0E01242
:1048630049498003A3E4F0EC1256F43D127270EC54
:104873002410FEE43DFFEA241DF582E43BF583E0CA
:10488300F5088E828F83E0C3982508F508F0EA24A3
:1048930017F8E43BF98882F583E0C39508C0E0127A
:1048A30048C9D0E01261A7C39508500A1248C9E469
:1048B300F01248E5E4F00244A72415F582E422EA65
:1048C300240DF582E422EC240DF582E43DF58322E8
:1048D300EC1258AD3DF58322EC2414F582E43DF54A
:1048E3008322EC123FD93DF583222413F582E4227F
:1048F300E0FEA3E0FF8C828D83A3A3A3A32212492E
:1049030007A3A3228983E0F508A3E0FFE5088C82CF
:104913008D8322A3A3A3A3F0A3EFF0E82402F8223C
:10492300124928A322E4F08C828D83A3A3A322122D
:104933004950A882A983221236B0A3A3A3A32212AB
:104943004950A3E022A312495008A983221261B05F
:10495300A32274F41203B574F312093B8A0A8B0B76
:10496300ECFEEDFF8C82F583E0540CF508E0A2E742
:104973005006E508D2E7F508E508D2E1F508125B31
:10498300FC7006E508D2E4F508E0A2E55006E50868
:10499300D2E5F5087C087D007900AA21AB22120F2D
:1049A300FD7402120B3AE508127276C0E07403122A
:1049B3000B3AD0E0124FE5E50AF0A3E50BF07405DE
:1049C300120B3A126AD2120B3AE070777408120B88
:1049D3003A124F6B12619938126AEDC0E0740812F3
:1049E3000B3A124A69D0E0126ACDC0E07408120B88
:1049F3003A124A5FD0E0F07408120B3A124A55E0BB
:104A0300124F931250141265B6EE2411125BC8C0F4
:104A1300E0124A4BD0E0F0EE2414125BC8C0E074FD
:104A230008120B3A124F6B2435F582E438F583D024
:104A3300E0124FB8C0E07408120B3A124F6FD0E087
:104A4300126820740D022A05E82432F582E439F550
:104A530083221244C4A3A3A3A3A3A322124F7F12AE
:104A63006CCC38F58322124F7F2426F582E438F587
:104A7300832274F71203B57E008A828B83A3A3A3D8
:104A8300A3A3A3A3A3A3E064046003024B371258B8
:104A9300A5E06003024B371257073B12578370039D
:104AA300024B3788828983E054036003024B37E863
:104AB3001258AD39F583E0FA8C828D83A3A3E0FB12
:104AC300A3E0CB2411F582E43BF583E06A706588AB
:104AD300828983A3A3A3A3A3A3A3A3A3124B3BE012
:104AE3006A7003A3E06B704C88828983A3A3124B83
:104AF30047E0FFA3E0CF2406125BC86A7003A3E07C
:104B03006B703188828983A3A3E0F88C828D83A3A1
:104B1300A3E0F9A3E0F5838982A3A3E06860138C83
:104B2300828D83A3A3A3E0F5838982E0540C6404FC
:104B330070027E01EEF98020124B3F2212517B8CD2
:104B4300828D8322A3A3124B3FA3A322740C120BC7
:104B53003AE0F9740D1208A77F010205DD74F6121D
:104B630003B574FC12093BEAFEEBFFECFAEDFB8C98
:104B730082F583A3E05403601690134C12578560AB
:104B8300597900EEFCEFFD1263AD122112804B85C3
:104B93002182852283EEF0A3EFF07402120B3A1206
:104BA3004FDAAC21AD227A517B19121B798A088B1B
:104BB30009A808A909EA4960218A828B83A3A3A3D0
:104BC300A3A3A3A3A3A37406F07A0088828B831202
:104BD3004F6B126576E0F9121AD774040244A47479
:104BE300F21203B574F312093BEAFEEBFF8A82F576
:104BF30083A3A3A3A3A3A3A3A3A3A3E0F50A90154D
:104C0300A6E0700579BA024F207508017509007591
:104C13000C00750D007C087D007900AA21AB2212DF
:104C23000FFD7405120B3A7401124FED5404601218
:104C33007402120B3AE0D2E6124FED54087003757A
:104C43000803E05410600674404508F508E0540872
:104C530060227402120B3AE044C0124FED542060FC
:104C63000A7403120B3AE0D2E080087403120B3A81
:104C7300E0D2E1F0EE2415125BC8124F50700374BA
:104C83000169700674084508F5088E828F83A3A313
:104C9300A3A3A3A3A3A3E07016121BD3852182852C
:104CA30022831265C37402120B3AE0D2E2803064AD
:104CB3000F70107402120B3A124FF574044508F585
:104CC30008807F8E828F83A3A3A3A3A3A3A3A3E0C0
:104CD30064028E828F83700A1272A9E8F0A3E9F04E
:104CE3008060A3A3A3A3A3A3A3A3E06403700DAC59
:104CF30021AD22EEFAEFFB12198780468E828F8355
:104D0300A3A3A3A3A3A3A3A3E0640170359013E417
:104D1300E060107402120B3A124FF5750910750A10
:104D2300FF80187402120B3AE0440C124FE574FD35
:104D3300F0A374FFF074044508F5088E828F831284
:104D43002918EE2415125BC8A2E0503F7402120B1F
:104D53003AE0540C701B8E828F831251731215C16B
:104D6300E9700579BB024F207402120B3AE0D2E5D9
:104D7300F0EE2415125BC8A2E050107402120B3A35
:104D8300E0540C64047004E0D2E5F0EE2411125BED
:104D9300C8C0E07404120B3AD0E0126AD4120B3A82
:104DA300E06003024F197408120B3A124FAEE50884
:104DB300F0A3E509F0124F46E0C0E0124F3CD0E00B
:104DC300F0124F2DE0C0E07408120B3A124F6B1231
:104DD30048ED38F583D0E01250146401701190133C
:104DE300E4E0C0E07408120B3A124F89D0E0F0748B
:104DF30008120B3A124FA9124F37FAE8241CF58216
:104E0300E439F583EA124FE0EE2415FAE43FFB8A16
:104E130082F583127AD0E8125F0439F583124FDAF0
:104E2300EE241C125BC8C0E0124F23D0E012604A8C
:104E3300124F50700374016970137408120B3A1205
:104E43005895FAEE241D125BC8F91218138E828F3F
:104E530083A3A3A3A3A3A3A3A3A3E0C0E074081203
:104E63000B3A124A69D0E0F07408120B3A124A5F07
:104E7300E50AF07408120B3A1257282428F582E445
:104E830039F583E50CF0A3E50D124FC0124F9312D1
:104E93005C411265B6EE124F37C0E0E82433F58269
:104EA300E439F583D0E0F0EE241B125BC8C0E07454
:104EB30008120B3A124F6FD0E0F0EE241A125BC8BF
:104EC300C0E07408120B3A124F6B2432F582E438B7
:104ED300F583D0E0124FB8124F5C120890126CD2D7
:104EE300127AD0740B120B3A124F6B242F127FAC31
:104EF3001208A7EE2415125BC85440601290137079
:104F0300125785600AAA21AB221263AD122112AA9D
:104F130021AB221219F9740C120B3AE0F902525A1E
:104F2300E82420F582E439F58322EE2419F582E49E
:104F33003FF58322126CE1E022E82412F582E43982
:104F4300F58322EE2418F582E43FF583225480F89A
:104F5300A3E05401F974806822F508A3E0F509750C
:104F63000A00780822124287124F7F22124F7F24B1
:104F730034F582E438F58322A3A3A3A3124F83223B
:104F8300E0F8A3E0C822124F7F1248BC38F5832211
:104F9300FAA3E0FBE8242AF582E439F583EAF0A3D7
:104FA300EB22A3A3A3A31244B6EE2212572C12574B
:104FB3000C39F58322F0EE2413125C4922F0EE241F
:104FC3000D125C4922E0FC8A828B83E02CFCA3E077
:104FD3003400FD8A828B83ECF0A3EDF022F0A3E48E
:104FE300F022F085218285228322F0EE2415125CC3
:104FF3004922E0D2E3F0124FFD228E828F831244C6
:10500300BA852182852283E8F0A3E9F022E8F0A3A0
:10501300E9126709E02274F71203B58A828B83A32E
:10502300E0640170047E6380027E648A828B83E085
:105033006008790512504D24F3FE90138CE060074D
:10504300F912504D24F2FE024B37121AA1E9F8EE81
:10505300C3982274F61203B574FE12093B852182AC
:105063008522831265C3E9FEECFAEDFB900430124E
:1050730057856032A821A92288088909780812086F
:10508300947D01740E120B3AE0FCEEF99004301299
:10509300659712211274021208A7EA4B6004790083
:1050A300800679B2800279B60244A274F71203B57E
:1050B300E9FE901342125785601F7409120B3AE000
:1050C300F5087808120898EEF990134212659712C2
:1050D300211274011208A7800279B6024B5B74F7A0
:1050E3001203B58908ECFEEDFF79B5E508245E608F
:1050F3002014600624F86034803D90043212513D40
:1051030060351272ED1221128E828F831265C38075
:1051130024901344127AD0EC4D601CEEFCEFFD900A
:105123001344126597122112E9F9800B9013401270
:1051330051431211A77900024B5B125177EA4B22BC
:10514300127AD4EEFAEFFB2274F71203B5E9FE7973
:10515300B574AB6E700B9013401251731211A77993
:1051630000024B5B8E828F83A3A3A3A3A3A3A3A35A
:105173001251772212517B22E0FAA3E0FB2274F151
:105183001203B5EAFEEBFF8C0A8D0B750801901331
:1051930094E06E7003A3E06F700C12524EAA0AAB38
:1051A3000B1211A7805E121BD9EE6A7002EF6B70AF
:1051B30009AA0AAB0B121BDF804AAC0AAD0BEEFA4D
:1051C300EFFB1216E7E9F50890159DE07036122003
:1051D30017E97030E508702C901364E06E7003A338
:1051E300E06F7020EE4F601C750C5C750D13750E2F
:1051F30000780C1208907C087D00AA0AAB0B12728F
:10520300991208A7A908027BCC74F21203B5EAFE2F
:10521300EBFF8C088D09750A0112524EEEFAEFFB73
:105223001211A1E9640170119013941244B285081C
:1052330082850983127272800EAC08AD09EEFAEF13
:10524300FB1216EDE9F50AA90A8011121BCD8A0C8F
:105253008B0DAC0CAD0D22740D1208A77F06020551
:10526300DD74F61203B5EAFEEBFF7A0D7B00121034
:105273009FEA4B6062EE2424126F76F0EE2425122F
:105283006F76A312531C126F7CA3A3126CFF1252EE
:10529300F7F0EE1252DD12530CE8F0A3E912533388
:1052A300125304127272EE1252E6126DC2A3A3A33A
:1052B300A3F0EE2433125BC8C0E01252EFD0E01229
:1052C3006AF1125304A3A3A3E8F0A3E912532BC07A
:1052D300E01258A5D0E0F00244A7242AF582E43F67
:1052E300F58322242EF582E43FF58322EA125D1E24
:1052F3003BF583221252FB22E08A828B83A3A3A372
:1053030022126E21A3A3A3A322125310221244BA82
:105313008A828B83A3A3A3A322F012532122EE2418
:1053230026F582E43FF58322F0EE2432125C492213
:10533300F0EE242C125C492274F41203B574FE12AD
:10534300093BECFEEDFFEC2416125BC864057010FC
:10535300EC2406FCE43FFD121981E970030253E7D4
:10536300AC21AD2212702B1215C7852182852283B1
:10537300125785606B8E828F83E064017058E875E5
:10538300F009A4F8AAF075F009E9A42AF974B92878
:10539300F8740039F9E8FAE9FB8882F58378081292
:1053A3000AE3EE125489120AA54027852182852239
:1053B30083124FA9125BD61253EC7808120AE390BA
:1053C3008FD07808120A518A828B837808120AC513
:1053D300800A79A28010EE240F12726C7900800685
:1053E30079A1800279C8022A0312500AEE126CEDE9
:1053F3002274F21203B58A0C8B0DECFEEDFFEC1256
:105403005BD6E4F0A3F0908FAC7808120AE3EC12B9
:1054130054891209516067EC240E125BCF70347803
:10542300B390138BE070289013BDE064017020ECFF
:105433002411125BC8F9121A898B09A909EE1257B4
:10544300083F1265C1EA4960047800800278A188A8
:1054530008802EE060046402700A121993E9F508CB
:105463007007801DE064037010EEFCEFFDAA0CAB27
:105473000D1215EBE9F50880087508A1800375087E
:10548300A3A90802525F126CED78082274F012038C
:10549300B574F512093BEAFEEBFFEA240AFCE43F8C
:1054A3008C82F583127F6D12571274031209058AD9
:1054B300828B831263B7E970030255787401120972
:1054C3000574031208FD1215C77401120B3A125723
:1054D300857003025578E875F009A4F8AAF075F011
:1054E30009E9A42AF974B528FC740039FDE50824F8
:1054F3000E126808E4F004120B3A1244B2E50812E3
:10550300570835091272708C828D83120B0BE508D4
:105513002412126808120AFF908FD07808120AE347
:105523008C828D837808120A3E8C828D83780C12CC
:105533000AE390900C7808120AE3780C79081203B6
:1055430046E5084509450A450B702A7401120B3AD2
:1055530012572875F009A4F8AAF075F009E9A42AEE
:10556300F974BD28F582740039F5837401F07A006B
:105573007B081257358E828F83A3A3A3A3A3A3A370
:10558300A3A3A3E02406FCA3E03400FD8E828F8353
:105593001263B7126ADF603EEE240A1256FA124F04
:1055A300AE7468124FE0E81256F439F5837402F0D2
:1055B300901376120B0B8C828D831265B012619956
:1055C3003CF583120AFF908FD07808120AE39013F8
:1055D300767808120A3E125770705D901340125786
:1055E30020A3A3A3A3A3A3A3A3A3A31261CF1211D5
:1055F300A1E9701012618D90134012619F70051222
:105603006ADF60348E828F83A3A3A3A3A3A3A3A380
:10561300A3A31257201251731215F1E960118E8260
:105623008F83A3A3A3A3A3A312575CE4F0A3F08ED9
:10563300828F83125742E4F012577060030256EFD1
:105643008E828F83A3A3A3A3A3A3127F6990138B3B
:10565300E060030256E49013BDE064016003025668
:10566300E4750A3A750B00780A120894740212085A
:10567300F5880A890B780A1208941275681208A72C
:10568300E9705BE508240E126808740112578AC09A
:10569300E0E5082411126808D0E0F0E508240F12B1
:1056A3006808743A124FE0901372120B0BE508244A
:1056B30012126808120AFF908FD07808120AE3903A
:1056C30013727808120A3E908FD07808120AE3907A
:1056D3001372780812095170081257318003125758
:1056E30012125770700612609074A1F0740B026E60
:1056F30098240EF582E422F8E43FF9E8FCE9FD88FA
:1057030082F58322EA12570C22240FF582E422E564
:105713000812570C3509F583E4F0A3F022127AD46A
:105723008E828F832212572C221244BAE8227A00E7
:105733007B02901219E0F9121051228A828B83A303
:10574300A3A3A3A3A3A3A3A3A312575022124F83DC
:10575300240EF582E438F58322A3A3A3A31257648E
:1057630022124F83240FF582E438F583228E828F31
:1057730083A3A3A3A3A3A3124F7B240FF582E4382F
:10578300F58312572C492212578E22F085218285E8
:105793002283E02274F61203B5EAFEEBFF7A237B41
:1057A3000012109FEE240AF508E43FF509850882EC
:1057B3001265C17C237D007900120FFD8508828567
:1057C30009831257857003025858EEFAEFFB12193A
:1057D3009F12577060748E828F8312588B64018E70
:1057E300828F83A3A3A3A3A3A37007125881740E6C
:1057F30080211257857010126ADF700B8E828F839F
:10580300A3A3E0A2E05007125877740D8005125845
:10581300777405126AF154036401700712585F74B8
:1058230005800B90138CE0C0E012585FD0E0125853
:105833009AF5838882125BF5850882850983124F66
:105843006B12655538F583E9800E850882850983D7
:1058530012663A800312657DF00244A78E828F831D
:10586300A3A3A3A3A3A3A3A3A3A312587122E012E8
:10587300659CA3228E828F83A3A3A3A3A3A3124F0A
:105883007B12655B38F58322A3A3A3A3A3A3A3A3DE
:10589300A3A3125750E02212589E22127040F8A37D
:1058A300E022EA1258AD3BF58322240CF582E42270
:1058B30074F11203B574E412093B8A0C8B0D8C0846
:1058C3008D097A237B0012109F8A0A8B0BAE0AAFD5
:1058D3000BEA4F7003025BB0126561E508241512F1
:1058E3005BE1687003A3E0698E828F8370047402A6
:1058F30080027401F0E508240DF8E43509F9888283
:10590300F583E0FAC3E49AFA95E0FB125BDD2AFA29
:10591300A3E03BFB8E828F83A3A3A3A31261B68E66
:10592300828F83A3A3F0EE2420F582E43FF583E482
:10593300F0EE2421F582E43FF583E4F0EEFAEFFB89
:10594300121A53850882850983125BFC70098E82C3
:105953008F83A37405800690138C125BEAF0EE2408
:1059630017F50AE43FF50B8E828F83125BF5E98509
:105973000A82850B83F0EE2416F8E43FF9E5082448
:105983000EFAE43509FB88828983124FC8E508249F
:1059930010FAE43509FB850A82850B83E0FC8882D3
:1059A3008983E0F88A828B83E0C398C39CF8125CF6
:1059B30036F0EEFCEFFDAA0CAB0D121999E9F50BCD
:1059C3008E828F83E06402700612618D125BBAE5EA
:1059D3000B6003025BA7750C00750D0090159DE02D
:1059E30064016005E06402703F125BCC6008EE2442
:1059F30021125BCF70328E828F83A3A3A3126583A0
:105A0300125C02EE2416125BC8125C2BFAE439FB1B
:105A1300123698EA4B6011126DEB120890125C106B
:105A2300AA0C1272991208A7EEFAEFFB121A5FE999
:105A3300F50B90159DE064016008E06402600302C9
:105A43005B9AE97003025B9AE50C450D7003025BF8
:105A5300A78003850E0B125BCC600BEE2421125B37
:105A6300CF6003025BA0850B0E850C08850D0975BD
:105A73000A007808120890125C108E828F83A3A309
:105A8300A3A3127FB21208A7EE2420125BC8600DF5
:105A9300125BD57468124FE0EE24208015EE2421AA
:105AA300125BC86015125BD57403F0A37401F0EEAA
:105AB3002421F582E43FF583E4F0EEFAEFFB121ABA
:105AC3005FE9F50B70907C137D007900740912086F
:105AD300FD120FFD741A120B3A7401125C416468D3
:105AE3007002A3E0704F8E828F8312575CE06405CF
:105AF3006003025A567C0879FF8E828F83A3A3A387
:105B0300A3E0242A1261D2121087E97003025A56C5
:105B13007C087D0079FF74011208FD120FFD7401EA
:105B23001209057A007B0079AB12197B7419120BE9
:105B33003A74FC8015125BD5E064037004A3E0643F
